S014000062745F626561636F6E5F6374652E733337A8
S214000000C00A00208D0D00001B4F02001B4F02008F
S2140000106B7502001B4F02001B4F02001B4F0200B5
S2140000201B4F02001B4F02001B4F02001B4F02001B
S2140000301B4F02001B4F0200434A02001B4F0200E8
S2140000401B4F02001B4F02001B4F02001B4F0200FB
S2140000501B4F02001B4F02001B4F02001B4F0200EB
S2140000601B4F02001B4F02001B4F02001B4F0200DB
S214000070BB7902001B4F02001B4F0200B50B0000AD
S214000080A50B00001B4F02001B4F02001B4F020077
S2140000901B4F0200311600001B4F02001B4F0200D0
S2140000A01B4F02001B4F02001B4F02001B4F02009B
S2140000B01B4F0200352502001B4F0200912F020045
S2140000C0D9210300D521030081270200E521030082
S2140000D0DD210300692F0200E1210300D12F020079
S2140000E0690802002D0A0200413002001B4F020080
S2140000F01B4F02001B4F02001B4F02001B4F02004B
S2140001001B4F02001B4F02001B4F02001B4F02003A
S2140001101B4F02001B4F02001B4F02001B4F02002A
S2140001201B4F02001B4F02001B4F02001B4F02001A
S2140001301B4F02001B4F02001B4F02001B4F02000A
S214000140002370B5404C05468AB0E36318B10088BA
S214000150236010F077FF3D4831F0E5FA3C4E3D4B0A
S214000160304633603C4B73602DF0F2F80021304689
S2140001701CF002F932A3D3E90023A062C4E90623E7
S2140001802DF0F1F8D4E9062319431043C4E906011B
S214000190CDE900014FF0FF334FF0FF32A06A31F097
S2140001A03DFB02224FF0FF31A06A31F03CFB0120FC
S2140001B010F04AFC4FF4007300222849A06A31F080
S2140001C086FBB0F5007F38D100239422CDE90733B3
S2140001D009933C23CDE9033205939623A06A03A92D
S2140001E006931CF0E7F935B3287C11F0E9F80546CC
S2140001F0F0B9A06A31F04CFC11F090F810F006FC53
S21400020020B14FF4807000210DF012FB10F00EFCB0
S21400021020B14FF4006000210DF00AFB2DF07EF9AE
S21400022001201CF0FDF80E4A0E49A06A2DF08EF84B
S21400023028460AB070BDFF20D7E70725F8E700BFBD
S2140002400DD5015520000000C8100020690345ECBC
S214000250B0220020CD080100C0220020B0200020DF
S214000260F5D2020035D302000348044B834202D085
S214000270034B03B118477047581000205810002051
S21400028000000000064B0749C91A891048BF013113
S214000290491003D0044B0BB101481847704700BF04
S2140002A058100020581000200000000010B5064C22
S2140002B0237843B9FFF7D8FF044B13B10448AFF3D4
S2140002C000800123237010BD8E2A0020000000004D
S2140002D0407F030008B5054B1BB105490548AFF341
S2140002E00080BDE80840FFF7CDBF00BF000000005B
S2140002F028130020407F0300A3F5803A704700BF14
S214000300174B002B08BF134B9D46FFF7F5FF002148
S2140003108B460F461348144A121A32F025F80E4B35
S214000320002B00D098470D4B002B00D0984700209C
S214000330002104000D000D48002802D00C48AFF341
S214000340008023F0A3F82000290024F06DFB23F0A2
S2140003508BF800BF0000080000000000000000004E
S214000360C00A002058100020A42B00200000000027
S2140003700000000000B58BB00390039B1B6823F4BD
S2140003807F4323F00703994A934200F02481974A5B
S214000390934200F22281964A934204D0954A9342B1
S2140003A000F01D8119E124F0C6FC24F0C6FC924B37
S2140003B01B689249184626F094FC0DF1170206AB0E
S2140003C01146184614F096FE0890089B002B2AD07B
S2140003D0894B1B688A49184626F083FC864B1B68A7
S2140003E08849184626F07DFC24F0A5FC24F0A5FCE0
S2140003F0814B1868844B00938123844A844926F0F5
S21400040070FC7D4B1868089B824A834926F069FC7D
S214000410089800F035FC784B1B688049184626F093
S21400042060FC00BFFDE724F086FC24F086FC724BDF
S2140004301B687B49184626F054FC0023099313E0FA
S21400044024F079FC24F079FC6B4B1868099BC3F107
S214000450050328336B4413F8103C1A46714926F0FE
S21400046040FC099B01330993099B042BE8DD24F02B
S21400047062FC24F062FC604B18689DF818301A463F
S2140004809DF81730002B01D1674B00E0674B684999
S21400049026F027FC674814F0CBFD0890089B002B3D
S2140004A02AD0554B1B685649184626F01AFC524B64
S2140004B01B685449184626F014FC24F03CFC24F033
S2140004C03CFC4D4B1868504B00938D234F4A5049C7
S2140004D026F007FC484B1868089B4E4A4E4926F003
S2140004E000FC089800F0CCFB434B1B684B491846B1
S2140004F026F0F7FB00BFFDE74E4B1B784E4A1E2149
S214000500184614F0ADFD0890089B002B2AD03A4BF5
S2140005101B683B49184626F0E4FB374B1B683949F5
S214000520184626F0DEFB24F006FC24F006FC324BD0
S2140005301868354B00939423344A354926F0D1FB8E
S2140005402D4B1868089B334A334926F0CAFB089897
S21400055000F096FB284B1B683049184626F0C1FB76
S21400056000BFFDE7334B1878344B1988344B1A8894
S214000570344B1B6814F08AFD0890089B002B30D083
S2140005801D4B1B681E49184626F0ABFB1A4B1B6812
S2140005901C49184626F0A5FB24F0CDFB24F0CDFB25
S2140005A0154B1868184B00939B23184A184926F0D9
S2140005B098FB114B1868089B164A174926F091FBC2
S2140005C0089800F05DFB0C4B1B681449184626F093
S2140005D088FB00BFFDE700BF04E000BF02E000BFED
S2140005E000E000BF00BF0BB05DF804FBA0000601F2
S2140005F0A0000100A0000600E0130020E031030088
S214000600FC31030000320300A4320300083203006A
S2140006101432030020320300243203003C3203006D
S2140006205032030060320300683203008032030059
S21400063098320300F20C0020C0310300E00C0020CA
S214000640E20C0020C00A002000B58BB00390039B8C
S2140006501B6823F47F4323F00703994A934240F034
S2140006602881984B08220021122014F02DFD0990B5
S214000670099B002B2AD0944B1B689449184626F0F9
S21400068030FB914B1B689249184626F02AFB24F053
S21400069052FB24F052FB8C4B18688E4B00933D2384
S2140006A08D4A8E4926F01DFB874B1868099B8C4A9D
S2140006B08C4926F016FB099800F0E2FA824B1B687C
S2140006C08949184626F00DFB00BFFDE7874B03223D
S2140006D00021142014F0F8FC0990099B002B2AD066
S2140006E0794B1B687949184626F0FBFA764B1B684F
S2140006F07749184626F0F5FA24F01DFB24F01DFB7A
S214000700714B1868734B00934B23734A734926F05A
S214000710E8FA6D4B1868099B714A724926F0E1FAAF
S214000720099800F0ADFA684B1B686F49184626F02A
S214000730D8FA00BFFDE76E4B05220021162014F004
S214000740C3FC0990099B002B2AD05F4B1B685F49AE
S214000750184626F0C6FA5C4B1B685D49184626F01C
S214000760C0FA24F0E8FA24F0E8FA574B1868594B18
S21400077000935923584A594926F0B3FA524B186841
S214000780099B574A574926F0ACFA099800F078FAC0
S2140007904D4B1B685449184626F0A3FA00BFFDE7E8
S2140007A00DF11B0207AB1146184614F0A3FC099086
S2140007B0099B002B2AD0444B1B684449184626F058
S2140007C090FA414B1B684249184626F08AFA24F0F4
S2140007D0B2FA24F0B2FA3C4B18683E4B00936423FE
S2140007E03D4A3E4926F07DFA374B1868099B3C4A3D
S2140007F03C4926F076FA099800F042FA324B1B681C
S2140008003949184626F06DFA00BFFDE79DF82130FD
S2140008108DF810309DF820308DF811309DF81F307F
S2140008208DF81230FF238DF81330FE238DF8143028
S2140008309DF81E308DF815309DF81D308DF8163059
S2140008409DF81C308DF8173004AB082200211820C4
S21400085014F03AFC0990099B002B2CD01A4B1B680D
S2140008601A49184626F03DFA174B1B6818491846D1
S21400087026F037FA24F05FFA24F05FFA124B186875
S214000880144B00937423144A144926F02AFA0E4B8C
S2140008901868099B124A134926F023FA099800F0B3
S2140008A0EFF9094B1B681049184626F01AFA00BFE4
S2140008B0FDE700BF00E000BF00BF0BB05DF804FB23
S2140008C0A0000100B4320300E0130020C032030091
S2140008D0C43203003C330300CC320300F43203007E
S2140008E000330300043303001C33030030330300DB
S2140008F03433030082B003468DF807309DF9073085
S214000900002B0CDB9DF8073003F01F0205499DF90C
S21400091007305B09012000FA02F241F8232000BFED
S21400092002B0704700E100E082B003468DF8073061
S2140009309DF90730002B0DDB9DF8073003F01F02F2
S21400094006499DF907305B09012000FA02F2603380
S21400095041F8232000BF02B0704700BF00E100E06E
S21400096008B501F0F9FD24F053FC2A4B1B6F23F069
S2140009700703284A43F00303136724F056FC264B6C
S2140009809B6A03F00203002B05D1234B03F50053AB
S2140009901A46012393621F4BD3F8203123F003033A
S2140009A01C4A43F00203C2F820311A4BD3F8243114
S2140009B023F00703174A43F00203C2F82431154B0D
S2140009C0D3F8403123F00303124A43F00203C2F87F
S2140009D04031104BD3F8603123F003030D4A43F047
S2140009E00203C2F860310B4BD3F8403223F0030306
S2140009F0084A43F00203C2F84032064BD3F80032EE
S214000A0023F00703034A43F00203C2F80032002330
S214000A10184608BD0080005000C0005000B583B0E6
S214000A2003F068F90346012B1ED1114B5B6E03F4ED
S214000A308023002B0CBF012300238DF807300C4BBE
S214000A4003F580531A464FF480235366094B04225D
S214000A501A609DF80730002B06D0054B03F50053AF
S214000A601A464FF48023536600BF03B05DF804FBBC
S214000A70008000502020015030B599B03A4B0FACA2
S214000A801D460FCD0FC495E8070084E807004FF415
S214000A90E13311930023ADF84A304FF48053ADF89C
S214000AA04C3003238DF855300AAB00221A605A608A
S214000AB09A60DA601A612D4B0A9329230B9305235B
S214000AC08DF8313006238DF8333008238DF8353015
S214000AD007238DF8373001238DF83930244A08ABC8
S214000AE092E8030083E8030002AB00221A605A6013
S214000AF09A60DA601A615A6102AB08AA92E80300AB
S214000B0083E803000F238DF8103010238DF8113082
S214000B10184B05932023069301238DF81D300023E0
S214000B208DF81E300AAB0FAA02A91348009013488E
S214000B3006F076FB169000238DF85F309DF81E3089
S214000B4083F00103DBB2002B03D003238DF85F3064
S214000B5000BF9DF85F3019464FF4E13024F050F99D
S214000B60169B184619B030BD5035030000000650DD
S214000B706C350300C01300206C13002048130020BF
S214000B8000B583B00549064807F0C2F8FFF774FFC2
S214000B90019000BF03B05DF804FB00BF3C0B0020D3
S214000BA04013002008B5024806F07CFC00BF08BDD4
S214000BB04813002008B5024806F074FC00BF08BDC4
S214000BC04813002008B5034823F0F4FF03461846F0
S214000BD008BD00BF4813002000B585B003460A468E
S214000BE08DF8073013468DF806309DF80730022B37
S214000BF003D09DF80730032B13D19DF80630012B48
S214000C0003D09DF80630002B0BD10521002023F0E1
S214000C10ECFF0390039B04220521002024F0E4FB54
S214000C201AE09DF80630022B03D09DF80630032B01
S214000C3012D19DF80730012B03D09DF80730002B0A
S214000C400AD10521002023F0D0FF0390039B002249
S214000C500521002024F0C8FB9DF80630012B09D89A
S214000C60064B1B681B68002B04D0044B1B681846F9
S214000C7023F092FF00BF05B05DF804FB440B002094
S214000C8000B585B001900F4B1B680F49184626F03B
S214000C9028F806F005F803900A4B1B68184605F07E
S214000CA0EBFF019800F032F8039805F0E5FF054BDE
S214000CB01B680649184626F014F800BF05B05DF814
S214000CC004FB00BFE01300207435030078350300F2
S214000CD008B5094B01221A70084B00221A70084BFF
S214000CE004221A70074B1F221A7005F0D9FF03461C
S214000CF0054A136000BF08BDF30C00208F2A0020B1
S214000D00F40C0020F50C0020E013002000B583B0A2
S214000D100190054B1B680549184625F0E2FF00BF09
S214000D2003B05DF804FB00BFE01300207C35030031
S214000D3000B583B002238DF8003000220221074858
S214000D4024F032F8034601936B460821184624F037
S214000D5071F800BF03B05DF804FB00BF006A18001E
S214000D6000B583B0064A074BD31A9B100193019A2D
S214000D700549044824F0D3F800BF03B05DF804FB2F
S214000D80EC840300EC840300A42B002000B585B09F
S214000D9000F080F8FFF7E4FF1F4B039319E00023F1
S214000DA002930EE0039B1A68029B9B001A44039B67
S214000DB05968029B9B000B4412681A60029B013321
S214000DC00293039B9B68029A9A42EBD3039B0C33D5
S214000DD00393039B114A9342E1D3114B019314E012
S214000DE00023009309E0019B1A68009B9B001344B4
S214000DF000221A60009B01330093019B5B68009AF7
S214000E009A42F0D3019B08330193019B054A934213
S214000E10E6D3FFF775FA00BF487F0300547F030050
S214000E20547F0300547F030082B003468DF80730DA
S214000E309DF90730002B0CDB9DF8073003F01F02EE
S214000E4005499DF907305B09012000FA02F241F8D6
S214000E50232000BF02B0704700E100E082B00346E6
S214000E608DF807309DF90730002B0DDB9DF8073015
S214000E7003F01F0206499DF907305B09012000FABE
S214000E8002F2603341F8232000BF02B0704700BF73
S214000E9000E100E008B51E4B1E4A9A601C4BD3F8D2
S214000EA088301B4A43F47003C2F888301A4B03F5A7
S214000EB080531A464FF400439366184B03F50053CD
S214000EC01A464FF0FF331366144B03F500531A46C9
S214000ED04FF6DF735366124B02221A60BFF34F8F32
S214000EE000BFBFF36F8F00BF0320FFF7B7FF0B4BAA
S214000EF003F500531A464FF44033D3600320FFF740
S214000F0093FF064B4FF440321A6100BF08BD00BF86
S214000F1000ED00E00000000000800050008000446B
S214000F20D0ED00E0014B1B6818467047500B0020C0
S214000F3000B583B0002301930E4B1B6F03F007032D
S214000F40032B09D0032B0FD8012B09D0022B0BD172
S214000F50FFF7E8FF019008E0074B1B68019304E0E9
S214000F60064B019301E0FFE7FDE7019B184603B03F
S214000F705DF804FB00800050480B0020002D310176
S214000F8000B583B0FFF7D4FF01900A4B1B6F1B0B15
S214000F9003F00F030093009B0133019AB2FBF3F3B7
S214000FA00193054A019B1360019B184603B05DF848
S214000FB004FB00BF00800050540B0020014B184675
S214000FC0704700BF00B4C404014B1B681846704746
S214000FD0480B002000B583B00190074A019B1360C0
S214000FE0064B1B6F03F00703032B01D1FFF7C8FF67
S214000FF000BF03B05DF804FB480B002000800050E3
S214001000014B1846704700BF002D3101014B1B688D
S214001010184670474C0B002084B001900B4B1A68A2
S214001020019B13440A4A934202D94FF0FF3309E06A
S214001030064B1B680393054B1A68019B1344034A2F
S2140010401360039B184604B0704700BF580B00207F
S2140010500080002000B585B003468DF807309DF867
S2140010600730002B01D0012300E000230393039AEE
S2140010700021034823F090FF00BF05B05DF804FB95
S21400108044C4035000B585B0002303930023ADF895
S2140010900A300023ADF808300023019301213A20DE
S2140010A000F004FE012304220321002024F09CF912
S2140010B0019824F094F90120FFF7CCFF4FF46070FC
S2140010C000F026FE03902D4B1B682C4A43F00103CC
S2140010D013602A4BDB68294A43F08073D3600123F0
S2140010E0ADF80A300F23ADF80830BDF80A305A02C2
S2140010F0BDF808305B001A432149224B13430B60AE
S214001100039B03F5D52303F2FC43DB081E4AA2FB30
S21400111003239B0A1D4A013B13611C4B0222C3F8A2
S214001120F0201A4B4FF48072C3F804234FF060434C
S214001130174AC3F8B02F4FF06043164AC3F8802E04
S2140011404FF06043D3F8003E4FF0604243F48073A4
S214001150C2F8003E4FF06043FF2283F820204FF095
S2140011606043D3F8003E4FF0604223F48073C2F829
S214001170003E0023184605B05DF804FBF0ED00E0E5
S214001180001000E0E101004017916502000004E055
S21400119055CEACC50900010082B001900B468DF813
S2140011A003304FF06043D3F8803E03F00103002B7A
S2140011B022D0134BDB68124A43F08073D3604FF0A3
S2140011C06043D3F8002E0121019B01FA03F34FF090
S2140011D060411343C1F8003E4FF06042019B52F855
S2140011E02330002BE5D04FF06041019B9DF8032093
S2140011F001F82320002300E01123184602B07047B0
S214001200F0ED00E000B585B001900091204B1B7812
S21400121083F00103DBB2002B01D01E4B34E0019BB0
S214001220002B01D11C4B2FE024F06DF80290002318
S214001230039322E0194A039B1B0113440C331B78CB
S21400124083F00103DBB2002B14D0019B039A1A60D3
S214001250124A039B1B0113440C3301221A700F4AD7
S214001260039B1B01134400221A60029824F05BF8CB
S214001270002309E0039B01330393039B072BD9D973
S214001280029824F050F8064B184605B05DF804FBAB
S214001290902A0020028000F0018000F0E413002075
S2140012A0048000F000B585B000238DF80B3024F0E4
S2140012B02AF80190002303930EE0154A039B1B01B6
S2140012C013440C331B78002B03D001238DF80B300E
S2140012D005E0039B01330393039B072BEDDD9DF88D
S2140012E00B3083F00103DBB2002B09D002F004FBC5
S2140012F0084B00221A70019824F015F8002303E02A
S214001300019824F010F8044B184605B05DF804FB6D
S214001310E4130020902A0020058000F000B585B078
S2140013200190164B1B7883F00103DBB2002B01D033
S214001330134B1FE0019B072B01D9124B1AE023F039
S214001340E2FF0390104A019B1B0113440C331B78E9
S214001350002B0BD00C4A019B1B0113440C330022BC
S2140013601A70039823F0DFFF002303E0039823F0AE
S214001370DAFF064B184605B05DF804FB902A0020FD
S214001380028000F0018000F0E4130020068000F0E8
S21400139000B585B0194B1B68019300238DF8043007
S2140013A023F0B1FF0290164B1B78002B04D0029856
S2140013B023F0B9FF134B1DE0114B01221A7002985F
S2140013C023F0B1FF0023039309E00F4A039B1B01A0
S2140013D013440C3300221A70039B01330393039BC0
S2140013E0072BF2DD08238DF8073001AB184602F014
S2140013F0B3FA0023184605B05DF804FB80350300F9
S214001400902A0020038000F0E413002000B583B08B
S2140014100190124B1B7883F00103DBB2002B01D046
S2140014200F4B17E0019B072B01D90E4B12E00E4A1B
S214001430019B1B0113440C331B7883F00103DBB2C2
S214001440002B01D0094B05E0019B0021184602F055
S2140014506DFA0023184603B05DF804FB902A0020BE
S214001460028000F0018000F0E4130020078000F006
S21400147000B583B00190124B1B7883F00103DBB2FA
S214001480002B01D00F4B17E0019B072B01D90E4B09
S21400149012E00E4A019B1B0113440C331B7883F0A9
S2140014A00103DBB2002B01D0094B05E0019B0121B3
S2140014B0184602F03BFA0023184603B05DF804FB1A
S2140014C0902A0020028000F0018000F0E413002043
S2140014D0078000F000B583B00190124B1B7883F0B4
S2140014E00103DBB2002B01D00F4B16E0019B072B4C
S2140014F001D90E4B11E00E4A019B1B0113440C331D
S2140015001B7883F00103DBB2002B01D0094B04E00B
S214001510019B184602F0F2FA0023184603B05DF865
S21400152004FB00BF902A0020028000F0018000F03B
S214001530E4130020078000F082B001900091194B60
S2140015401B7883F00103DBB2002B01D0164B25E09D
S214001550019B072B02D8009B002B01D1134B1DE0EB
S214001560134A019B1B0113440C331B7883F00103C1
S214001570DBB2002B01D00F4B10E00F4B1B6D01218F
S214001580019A01FA02F21340002B03D0009B0122BD
S2140015901A7002E0009B00221A700023184602B060
S2140015A0704700BF902A0020028000F0018000F003
S2140015B0E4130020078000F00000045000B583B05C
S2140015C001900091154B1B7883F00103DBB2002BD2
S2140015D001D0134B1DE0019B072B02D8009B002B6C
S2140015E001D1104B15E0104A019B1B0113440C332C
S2140015F01B7883F00103DBB2002B01D00B4B08E015
S214001600019B184602F09AFA03461A46009B1A7087
S2140016100023184603B05DF804FB00BF902A0020A4
S214001620028000F0018000F0E4130020078000F044
S21400163000B587B0364B1B6D0393354B5B6D039A35
S21400164013400393039B002B01DA00BFFDE7002342
S21400165005930123049353E0039A049B1340002B45
S21400166048D02B4B03F500531A46049B1365059B85
S2140016701B01284A13440293029B1B68002B39D097
S214001680029B9B685A1C029B9A60029B1B68029AEC
S2140016909168029A5268059898470346002B14BF33
S2140016A001230023DBB283F00103DBB28DF80730A1
S2140016B09DF8073003F001038DF80730029B5B7B33
S2140016C0012B17D19DF80730002B13D0124A059B2B
S2140016D05B01134403F1080213796FF3410313719E
S2140016E00D4A059B5B01134403F1180213796FF34F
S2140016F041031371059B01330593049B5B00049320
S214001700059B072BA8D900BF00BF07B05DF804FBF8
S21400171000000450E41300206414002010B58AB0C2
S2140017200292019303468DF80F300B468DF80E306B
S2140017307B4B1B7883F00103DBB2002B01D0794B87
S214001740EBE0029B072B10D80C9B002B0DD00D9BBB
S214001750002B0AD0109BB3F5006F06DC9DF80F3007
S214001760012B04D10E9B002B01D16F4BD5E0029BC1
S2140017701B016E4A13440993099B1B7B83F00103EC
S214001780DBB2002B01D06A4BC7E004AB00221A6024
S2140017905A609A60DA60029B5B01664A13440893BB
S2140017A09DF80E30002B1DD1089B1A4600231360AF
S2140017B053609360D360089A937843F01003937055
S2140017C0089AD37843F03003D3709DF83C3083F00A
S2140017D00103DBB2002B22D0089AD37843F0030330
S2140017E0D3701CE0089B1A46002313605360936076
S2140017F0D360089A937843F010039370089AD378CE
S21400180043F00303D3709DF83C3083F00103DBB252
S214001810002B04D0089AD37843F03003D370019B92
S2140018200493109B9BB2013B9BB2C3F30A0399B28D
S214001830089A138861F30E1313800C9A089B9A601B
S2140018400D9A089B5A609DF8443003F00303D9B202
S214001850089AD37861F38303D3709DF80F30012B79
S2140018603BD1089A137B43F001031373089A137B4A
S21400187043F002031373089AD368042161F39F03AD
S214001880D3602C4A029B5B01134403F11002089BB1
S21400189014460FCB84E80F00264A029B5B011344D4
S2140018A003F1180253686FF0030161F39F0353605E
S2140018B00E9A2049029B5B010B4414331A609DF874
S2140018C00E30012B09D10D9A1A49029B5B010B447D
S2140018D018331A600E9A089B5A60129B002B08D188
S2140018E09DF80F30002B04D1089A93786FF30413F9
S2140018F09370099B129A1A60099B139A5A60099B67
S21400190000229A60099B9DF80F205A73029B04A937
S214001910089A184602F064F8002318460AB010BD6C
S214001920902A0020028000F0018000F0E4130020DE
S214001930078000F06414002008B5054B1B68054AB4
S2140019401268114618461AF029F90346184608BDCB
S2140019505C0B00207C0B002084B003468DF807301B
S2140019609DF90730B3F1FF3F04D0002B05D10023CB
S214001970039305E0044B039302E0044B039300BF7C
S214001980039B184604B0704721E000F024E000F006
S21400199000B58BB0039002910192029B0893039BC3
S2140019A00793019B9B000693069A0899079831F0C7
S2140019B0E3FB03468DF817309DF917301846FFF7FE
S2140019C0CBFF0990099B002B09D1069A0899079826
S2140019D030F0A0FC0346002B01D0034B0993099B73
S2140019E018460BB05DF804FB10E000F000B585B0BB
S2140019F00190019831F0C4FB03468DF80B309DF939
S214001A000B301846FFF7A8FF0390039B002B0ED160
S214001A1002F078F903461946019823F020FB0346A6
S214001A2083F00103DBB2002B01D0034B0393039B2F
S214001A30184605B05DF804FB0EE000F008B523F08C
S214001A404CFC0346014A136000BF08BDA41B0020DF
S214001A5008B5034B1B68184623F04BFC00BF08BDB7
S214001A60A41B002008B500BF0421044823F0A9FBEE
S214001A700346002BF8D100BF00BF08BD84400050CD
S214001A8008B5FFF7EFFF044BD3F884309B0903F04B
S214001A900303DBB2184608BD00400050054BDB6967
S214001AA003F48033002B14BF01230023DBB2184657
S214001AB0704700BF00000350024B0022DA6300BFED
S214001AC0704700BF00000350024B41F67132DA63E4
S214001AD000BF704700000350014B9B6818467047D4
S214001AE00000035082B00190024A019B936000BF41
S214001AF002B070470000035084B0019000230393A7
S214001B00019BB3F5607F21D0019BB3F5607F34D88D
S214001B10019BB3F5207F29D0019BB3F5207F2CD8FD
S214001B20019BB3F5007F19D0019BB3F5007F24D845
S214001B30019B002B03D0019BB3F5C07F1DD1124B38
S214001B401B6F1B0B03F00F03039317E00E4BD3F82A
S214001B5080301B0903F0030303930FE00A4BD3F80E
S214001B6090301B0E03F01F03039307E0064B1B6F1A
S214001B709B0A03F00103039300E000BF039B0133BD
S214001B80184604B0704700BF0080005010B582B001
S214001B9001900091019BB3F5607F49D0019BB3F59E
S214001BA0607F7CD8019BB3F5207F68D0019BB3F59E
S214001BB0207F74D8019BB3F5007F4ED0019BB3F510
S214001BC0007F6CD8019B002B03D0019BB3F5C07F30
S214001BD065D1009B012B0AD0009B022B07D0009BEF
S214001BE0042B04D0009B082B01D0009B102B23F065
S214001BF06AFB23F060FB01F043F82B4B1B6F23F4CA
S214001C007042009B013B1B03274913430B6723F0DD
S214001C10B9FA0446FFF734FF0346C3F10203194638
S214001C20204623F019FB01F0E9F901F035F837E01A
S214001C30009B012B04D0009B022B01D0009B042BA1
S214001C40194BD3F8803023F03002009B013B1B0178
S214001C5015491343C1F8803022E0009B002B01D0C9
S214001C60009B202B104BD3F8903023F0F852009BAB
S214001C70013B1B060C491343C1F8903010E0009B53
S214001C80012B01D0009B022B074B1B6F23F48062B5
S214001C90009B013B9B02044913430B6700E000BF17
S214001CA000BF02B010BD00BF0080005000B585B078
S214001CB001900B468DF8033000230393019B5B09CC
S214001CC0002B0FD0019B5B09012B02D10D4B039318
S214001CD008E0019B5B09022B02D10B4B039301E04A
S214001CE00A4B0393019B03F01F0302939DF80330F6
S214001CF01A460299039823F04BFA00BF05B05DF828
S214001D0004FB00BF64800050688000506082005072
S214001D1010B584B001900023039300230293019B27
S214001D20B3F5F06F00F0C282019BB3F5F06F00F2DE
S214001D30C382019BB3F5E06F00F0B282019BB3F55E
S214001D40E06F00F2B982019BB3F5D06F00F0A2827B
S214001D50019BB3F5D06F00F2AF82019BB3F5C06F65
S214001D6000F09282019BB3F5C06F00F2A582019B42
S214001D70B3F5B06F00F07C82019BB3F5B06F00F254
S214001D809B82019BB3F5A06F00F06C82019BB3F5BC
S214001D90A06F00F29182019BB3F5906F00F05C8219
S214001DA0019BB3F5906F00F28782019BB3F5806FBD
S214001DB000F04C82019BB3F5806F00F27D82019BA0
S214001DC0B3F5607F00F03382019BB3F5607F00F2CD
S214001DD07382019BB3F5407F00F01C82019BB3F534
S214001DE0407F00F26982019BB3F5207F00F00682F7
S214001DF0019BB3F5207F00F25F82019BB3F5007F65
S214001E0000F0F081019BB3F5007F00F25582019B44
S214001E10B3F5C07F00F0E181019BB3F5C07F00F20F
S214001E204B82019B002B00F0D881019BB3F5807F8D
S214001E3000F24282019B202BC0F03E82019B203B99
S214001E40E02B00F2398201A252F823F0DB210000D9
S214001E50FD210000DB210000FD2100004D220000D6
S214001E604D2200004D2200004D220000FD21000002
S214001E70FD210000712200001522000089220000CA
S214001E809522000015220000FD210000FD21000023
S214001E90FD210000B9220000B9220000B92200008E
S214001EA0B9220000B9220000B92200006522000015
S214001EB059220000FD210000FD210000FD21000048
S214001EC0AD220000A1220000FD210000B922000082
S214001ED0B9220000B9220000B9220000B922000091
S214001EE0B9220000B9220000B9220000B922000081
S214001EF0B9220000B9220000B9220000B922000071
S214001F00DB210000B9220000DB210000DB210000FD
S214001F10DB2100004D220000B9220000B92200009B
S214001F20B9220000B9220000B9220000B922000040
S214001F30B9220000B9220000B9220000B922000030
S214001F40B9220000B9220000B9220000DB210000FF
S214001F50DB210000B9220000B9220000B9220000EF
S214001F60B9220000B9220000B9220000B922000000
S214001F70B9220000B9220000B9220000B9220000F0
S214001F80B9220000B9220000B9220000B9220000E0
S214001F90B9220000B9220000B9220000B9220000D0
S214001FA0B9220000B9220000B9220000B9220000C0
S214001FB0B9220000B9220000B9220000B9220000B0
S214001FC0B9220000B9220000B9220000D121000089
S214001FD0B9220000B9220000B9220000B922000090
S214001FE0B9220000B9220000B9220000B922000080
S214001FF0B9220000B9220000B9220000B922000070
S214002000B9220000B9220000B9220000B92200005F
S214002010B9220000B9220000B9220000B92200004F
S214002020B9220000B9220000B9220000B92200003F
S214002030B9220000B9220000B9220000B92200002F
S214002040B9220000B9220000B9220000B92200001F
S214002050B9220000B9220000B9220000B92200000F
S214002060B9220000B9220000B9220000B9220000FF
S214002070B9220000B9220000B9220000B9220000EF
S214002080B9220000B9220000B9220000B9220000DF
S214002090B9220000B9220000B9220000B9220000CF
S2140020A0B9220000B9220000B9220000B9220000BF
S2140020B0B9220000B9220000B9220000B9220000AF
S2140020C0B9220000B9220000B9220000B92200009F
S2140020D0B9220000B9220000B9220000B92200008F
S2140020E0B9220000B9220000B9220000B92200007F
S2140020F0B9220000B9220000B9220000B92200006F
S214002100B9220000B9220000B9220000B92200005E
S214002110B9220000B9220000B9220000B92200004E
S214002120B9220000B9220000B9220000B92200003E
S214002130B9220000B9220000B9220000B92200002E
S214002140B9220000B9220000B9220000B92200001E
S214002150B9220000B9220000B9220000B92200000E
S214002160B9220000B9220000B9220000B9220000FE
S214002170B9220000B9220000B9220000B9220000EE
S214002180B9220000B9220000B9220000B9220000DE
S214002190B9220000B9220000B9220000B9220000CE
S2140021A0B9220000B9220000B9220000B9220000BE
S2140021B0B9220000B9220000B9220000B9220000AE
S2140021C0B9220000B9220000B92200007D220000DA
S2140021D0FEF7AEFE034603936FE0FEF7D1FE03461E
S2140021E003936AE0FEF7A4FE04464FF40070FFF780
S2140021F083FC0346B4FBF3F303935EE0FEF7C0FEF6
S21400220004464FF42070FFF777FC0346B4FBF3F365
S214002210039352E0FEF7B4FE04464FF42070FFF737
S2140022206BFC0346B4FBF3F35B08039345E002AB99
S2140022300021184623F024F8029C4FF46070FFF744
S2140022405BFC0346B4FBF3F3039336E003AB0021D9
S214002250184600F079FD30E003AB0021184600F088
S21400226089FC2AE003AB0021184600F0DDFC24E0E0
S21400227003AB0021184600F08DFE1EE003AB0021E4
S214002280184600F05DFF18E003AB0021184600F08A
S2140022909DFD12E003AB0021184600F005FF0CE0A0
S2140022A003AB0021184600F0C3FE06E003AB002196
S2140022B0184600F0CDFD00E000BF039B184604B0B2
S2140022C010BD00BF00B585B0019000230393019BAD
S2140022D0B3F5086F00F02681019BB3F5086F00F296
S2140022E03381019BB3F5006F00F01081019BB3F5BD
S2140022F0006F00F22981019BB3F5F06F00F00081BA
S214002300019BB3F5F06F00F21F81019BB3F5E06F00
S21400231000F01481019BB3F5E06F00F21581019B7C
S214002320B3F5D06F00F0F880019BB3F5D06F00F2E4
S2140023300B81019BB3F5C06F00F0DC80019BB3F509
S214002340C06F00F20181019BB3F5B06F00F0C08052
S214002350019BB3F5B06F00F2F780019BB3F5A06F59
S21400236000F0E680019BB3F5A06F00F2ED80019BC4
S214002370B3F5906F00F0CA80019BB3F5906F00F242
S214002380E380019BB3F5806F00F0A880019BB3F556
S214002390806F00F2D980019BB3F5807F00F0A480A7
S2140023A0019BB3F5807F00F2CF80019B522B69D84A
S2140023B0019B242BC0F0C880019B243B2E2B00F2EF
S2140023C0C38001A252F823F0DD240000DD240000C3
S2140023D0DD240000DD24000049250000492500001A
S2140023E0D124000049250000F5240000192500002E
S2140023F04925000049250000492500004925000020
S214002400492500004925000049250000492500000F
S2140024104925000049250000312500004925000017
S2140024204925000049250000492500000125000037
S2140024303D250000492500004925000049250000EB
S21400244049250000492500004925000049250000CF
S21400245049250000492500004925000049250000BF
S21400246049250000492500004925000049250000AF
S214002470492500004925000049250000492500009F
S214002480DD240000019B802B5ED1324B1B6F03F0D6
S2140024900703013B032B17D801A252F823F000BF15
S2140024A0C3240000B1240000B7240000BD240000AF
S2140024B0052303930BE00323039308E0072303930A
S2140024C005E00223039302E00023039300BF3CE0F1
S2140024D003AB1946002000F05DFD36E003AB19465D
S2140024E0002000F031FC30E003AB1946002000F07D
S2140024F027FE2AE003AB1946002000F067FC24E024
S21400250003AB1946002000F0A3FC1EE003AB1946FF
S214002510002000F02FFB18E003AB1946002000F067
S214002520C3FD12E003AB1946002000F0CBFB0CE025
S21400253003AB1946002000F077FB06E003AB194614
S214002540002000F075FD00E000BF039B184605B0B4
S2140025505DF804FB00800050074B03F580531A46D5
S2140025604FF400235366054B03F580531A460123A8
S214002570936200BF704700BF0080005000C000504C
S21400258000B585B001900198FFF79CFE0290029B73
S214002590082B07D0029B082B20D3029B093B012B5C
S2140025A01CD804E0134B1B88ADF80E301BE0124B12
S2140025B003F580531A464FF4001353660F4B5B6ABD
S2140025C003F00103002B04D04FF4FA73ADF80E307D
S2140025D009E04FF6FF73ADF80E3004E04FF6FF73D8
S2140025E0ADF80E3000BFBDF80E30184605B05DF8E9
S2140025F004FB00BFE40C00200080005000400250A6
S21400260000B583B001908020FFF75CFE0346032BE5
S21400261000F0E280724B03F580531A464FF4002315
S2140026205366704B45F60E02C3F880206D4B03F5DB
S21400263080531A46022393626A4B03F500531A46E8
S2140026400123936200BF674B9B6D03F48033002B1E
S214002650F9D1019B1B681A06019B5B681B051A4390
S214002660019B1B7B1B041A43019B5B7B1B031A43CA
S214002670019B9B7B9B011343019AD27B1146594ACF
S2140026800B431361574B9B6903F00042019B1B6988
S2140026909B061A43019B5B691B061A43019B1B7E24
S2140026A01B041A43019B5B7E1B021343019A927E16
S2140026B011464C4A0B4393614A4B1B6A23F00D03A9
S2140026C0019AD269002A01D1002200E008221A43AA
S2140026D0019BDB7E9B001A43019BDB694149134348
S2140026E00B62019BDB69002B57D13E4B9B6A23F0A4
S2140026F03302019B93F820305B011A43019B93F849
S21400270021301B011343374A43F00103936200BF95
S214002710344B9A6D344B1340334A9342F8D1314BC5
S21400272003F580531A46022393622E4B02221A6543
S21400273000BF2C4B9B6D03F08043002BF9D1294B37
S2140027401B6923F47002019B9B681B0525491343F4
S2140027500B61244B03F580531A464FF000439361F8
S214002760019B93F8223083F00103DBB2002B05D0E7
S2140027701C4B03F500531A4602239362019B93F801
S214002780233083F00103DBB2002B1BD0154B03F57F
S21400279000531A460123936214E0124B9B6A23F0FF
S2140027A03302019B93F820305B011A43019B93F898
S2140027B022305B001343019A92F823201146094AFF
S2140027C00B439362019B93F82430002B05D0054BF6
S2140027D0064AC3F8802000E000BF03B05DF804FBA3
S2140027E00080005000C0005003000140F1A7FFFF2A
S2140027F000B585B00190354B9B6A0293019BFF2B79
S21400280001D921235DE0314B9B6D03F48033002B0F
S21400281005D02E4B03F580531A46012393622B4BAB
S21400282003F580531A4602239362284B9B6D03F4EC
S2140028308033002B06D000BF244B9B6D03F00203B1
S214002840002BF9D0214B03F580531A46022313655B
S21400285000BF1E4B9B6D03F08043002BF9D100F0A8
S21400286039F803461A46019B13440393039B002B37
S21400287002DA0023039304E0039BFF2B01DDFF2312
S2140028800393124B9B6923F47F0323F47F43039A3D
S21400289012041A43019B1B029BB20C4913438B6123
S2140028A0029A02210A4822F099FC084B9B6D03F419
S2140028B08033002B04D0029A0121054822F08EFCBA
S2140028C00023184605B05DF804FB00BF00C00050AA
S2140028D028C00050024B93F900301846704700BFDE
S2140028E0912A002000B583B02A4B9B6A0193294B9E
S2140028F003F580531A460123936200BF254B9B6D58
S21400290003F00303032BF9D1224B03F580531A4639
S214002910022393621F4B03F580531A460223136566
S21400292000BF1C4B9B6D03F08043002BF9D100BF0A
S214002930184B9A6D184B1340174A9342F8D1154B13
S21400294003F580531A460123136500BF114B9B6D98
S21400295003F00203022BF9D000BF0E4B9B6D03F071
S2140029600203002BF9D00B4B03F580531A460223C3
S214002970136500BF074B9B6D03F00203002BF9D0D5
S214002980019A0321054822F029FC00BF03B05DF838
S21400299004FB00BF00C000500300010028C0005028
S2140029A084B001904F230393019B5B788DF80B3026
S2140029B09DF80B20039B934228BF13468DF80A30E0
S2140029C0284B03F580531A464FF480035366264B74
S2140029D04FF4D1525A62244B03F580531A46022311
S2140029E05360214B03F500531A460123536000BF82
S2140029F01D4B1B6903F48033002BF9D1019B1B7818
S214002A001A029DF80A30184913434B61019B5B6814
S214002A101A02019B9B681B011A43019B1B7B5B00F0
S214002A201343019A527B11460F4A0B439360019B56
S214002A309B7B5A01019BDB7B1B011A43019B1B7C82
S214002A405B001343019A527C1A43074B5A60019B62
S214002A509B7C002B03D0044B6FF4D1525A6200BF0C
S214002A6004B07047008000500000025082B0034659
S214002A70ADF80630034ABDF80630138000BF02B03A
S214002A80704700BFE40C002082B00346ADF8063065
S214002A90034ABDF80630138000BF02B0704700BF7F
S214002AA0E60C002000B587B003468DF807300023FB
S214002AB003930023059300230493274B03F58053C9
S214002AC01A464FF400135366244B02225A6000BF86
S214002AD0224B9B6803F48033002BF9D19DF8073016
S214002AE0012B2ED1FEF770FA0390039B1C4A9342EB
S214002AF005D11C4B059345F67A13049317E0039B08
S214002B00194A934205D1194B059345F61A030493C7
S214002B100DE0039A13469B0013445B0A0593144B7F
S214002B200493039B5B0A049AB2FBF3F304930B4AE9
S214002B30059BD362094A049B1363084B01225A6221
S214002B4002E0064B00225A62044B00225A6000BF85
S214002B5007B05DF804FB00BF008000500040025044
S214002B6000F04902D8B80500C0175302BBCF0500D5
S214002B706466666600B585B00190009100230393F5
S214002B80284BD3F8243103F00703062B37D801A2CD
S214002B9052F823F0F92B0000B12B0000C92B0000DF
S214002BA0E12B0000ED2B0000BD2B0000D52B000014
S214002BB0FEF7B8F903900523029323E0FEF7B2F977
S214002BC00390062302931DE0FEF7FEF9039003230D
S214002BD0029317E0FEF7F8F903900423029311E03E
S214002BE0FEF70EFA0390022302930BE022F0AFF9F1
S214002BF003900723029305E00123029302E00023DB
S214002C00029300BF019B002B02D0019B039A1A601F
S214002C10009B002B02D0009B029A1A6000BF05B0F2
S214002C205DF804FB0080005000B583B00190009171
S214002C30124BD3F8203203F00303012B02D0022BF1
S214002C4005D009E00099019800F07EF811E000999F
S214002C50019800F0BBF80CE0019B002B02D0019B12
S214002C6000221A60009B002B02D0009B00221A60F4
S214002C7000BF00BF03B05DF804FB00BF008000503B
S214002C80044B03F580531A464FF48033136700BF96
S214002C90704700BF0080005008B58020FFF738F866
S214002CA00346064A934206D8054B03F500531A46D8
S214002CB04FF48033136700BF08BD00BF005A62029E
S214002CC00080005000B585B001900091002303936A
S214002CD01C4BD3F8003103F00303032B1FD801A2CB
S214002CE052F823F0192D0000F52C0000012D0000ED
S214002CF00D2D0000FEF768F903900323029311E000
S214002D00FEF784F90390082302930BE022F01FF9E4
S214002D1003900723029305E00123029302E00023B9
S214002D20029300BF019B002B02D0019B039A1A60FE
S214002D30009B002B02D0009B029A1A6000BF05B0D1
S214002D405DF804FB0080005000B585B0019000914E
S214002D50002303931C4BD3F8203103F00303032B0B
S214002D601FD801A252F823F09D2D0000792D0000F7
S214002D70852D0000912D0000FEF7D4F80390052362
S214002D80029311E0FEF720F90390032302930BE071
S214002D90FEF736F903900223029305E0012302931F
S214002DA002E00023029300BF019B002B02D0019B90
S214002DB0039A1A60009B002B02D0009B029A1A60AE
S214002DC000BF05B05DF804FB0080005000B585B07C
S214002DD001900091002303931C4BD3F8403103F07D
S214002DE00303032B1FD801A252F823F0212E000064
S214002DF0FD2D0000092E0000152E000022F0AAF876
S214002E0003900923029311E0FEF700F903900823CC
S214002E1002930BE022F0A2F803900B23029305E046
S214002E200123029302E00023029300BF019B002BC4
S214002E3002D0019B039A1A60009B002B02D0009BD5
S214002E40029A1A6000BF05B05DF804FB00800050CF
S214002E5000B585B001900091002303931C4BD3F876
S214002E60603103F00303032B1FD801A252F823F0AE
S214002E70A52E0000812E00008D2E0000992E000049
S214002E8022F068F803900923029311E0FEF7BEF8DB
S214002E900390082302930BE022F060F803900B23C4
S214002EA0029305E00123029302E00023029300BF91
S214002EB0019B002B02D0019B039A1A60009B002BFB
S214002EC002D0009B029A1A6000BF05B05DF804FBB2
S214002ED00080005084B0019000914FF4401303939B
S214002EE0009B002B0AD1019B0D4A934203D94FF455
S214002EF0801303930FE0002303930CE0009B002B4A
S214002F0009DD019B064A934203D94FF480130393CD
S214002F1001E000230393039B184604B0704700BFEC
S214002F20005A620200B585B001900091184B03F577
S214002F3080531A464FF4003393660020FEF7DCFDFC
S214002F400246019B02FB03F30193FEF7A7FD03462F
S214002F508DF80F30FEF7B8FDFEF7BEFD034623F4EE
S214002F604013029300990198FFF7B4FF0246029BB4
S214002F70134302930298FEF7B5FD9DF80F30002B21
S214002F8001D0FEF799FD00BF05B05DF804FB00BF59
S214002F900080005000B585B0019000910023029398
S214002FA0154BD3F8803103F00303012B02D0022B1C
S214002FB008D00EE002AB00211846FFF7C5FE0F232F
S214002FC0039309E0FEF71CF80346029302230393DB
S214002FD002E00023039300BF019B002B02D0029A5D
S214002FE0019B1A60009B002B02D0009B039A1A607C
S214002FF000BF05B05DF804FB0080005000B583B04C
S214003000022301934FF4C070FEF782FE0346074A80
S214003010934201D80123019301994FF42070FEF7E3
S214003020B5FD00BF03B05DF804FB00BF80F0FA02F8
S21400303000B585B00190009100230393194BD3F897
S214003040403203F00303032B12D0032B16D8012BB8
S21400305002D0022B06D011E021F07CFF039009235A
S21400306002930EE0FDF7D2FF03900823029308E0D8
S21400307021F074FF03900B23029302E000230293D7
S21400308000BF019B002B02D0019B039A1A60009B95
S214003090002B02D0009B029A1A6000BF05B05DF8B4
S2140030A004FB00BF0080005000B585B00190009181
S2140030B000230393214BD3F8003203F00703042BBD
S2140030C029D801A252F823F011310000DD300000AB
S2140030D0E9300000F53000000131000021F03AFF31
S2140030E003900923029319E0FDF790FF039008234D
S2140030F0029313E021F032FF03900B2302930DE0BE
S214003100FDF73EFF03469B0A03930E23029305E05A
S2140031100123029302E00023029300BF019B002BD1
S21400312002D0019B039A1A60009B002B02D0009BE2
S214003130029A1A6000BF05B05DF804FB00800050DC
S21400314000B585B00190009100230393114B1B68D6
S21400315003F00403002B06D0FDF712FF034603938B
S2140031600C23029305E002AA03AB11461846FFF7AC
S2140031702DFE019B002B02D0039A019B1A60009B38
S214003180002B02D0029A009B1A6000BF05B05DF8C3
S21400319004FB00BF10E000E0054B5B68C3F30803C8
S2140031A0002B14BF01230023DBB21846704700BF74
S2140031B000ED00E0024B034A1A6400BF704700BFF0
S2140031C0004009503254FFFF024B4AF6CD321A64D3
S2140031D000BF70470040095008B500BF04210448EE
S2140031E022F0B1F80346002BF8D100BF00BF08BD9F
S2140031F08440005008B5FFF7EFFF044BD3F8843047
S2140032009B0903F00303DBB2184608BD00400050DC
S21400321082B00190044B03F500531A46019BC2F896
S214003220203400BF02B0704700C0035000B585B020
S21400323003468DF807309DF80730002B13D12D4B31
S21400324000221A602C4B03F580531A464FF40033C5
S21400325053662A4B5B68012B47D1274BD3F80031C6
S214003260244A136041E0234B1B68002B3DD0234BC0
S2140032705B68012B39D0204A1E4B1B68C2F8003110
S2140032808020FFF71FF80346052B28D14FF4C070A7
S214003290FEF732FC0390039B012B04D102214FF46E
S2140032A0C070FEF773FC154B03F500531A46072350
S2140032B01361124B03F580531A460123536000BF77
S2140032C00E4B1B6903F00103002BF9D0039B012B67
S2140032D00BD101214FF4C070FEF758FC05E0074BF8
S2140032E003F580531A460123536000BF05B05DF80E
S2140032F004FB00BF5C1C00200080005000C0015092
S21400330000B583B00190019B1A78054B1A70012115
S214003310002000F0A3F800BF03B05DF804FB00BF78
S214003320581C002082B00190064B5B6F23F440725D
S214003330019B5B781B02034913434B6700BF02B037
S214003340704700BF0040005000B585B003468DF8BA
S21400335007309DF80730002B02D00020FFF766FFED
S214003360164B1B69154A43F00403136105F0AEF8CB
S21400337022F004F81248FFF74BFF21F0AEFF03904F
S2140033802FF002FF039821F0B4FF21F0F9FF05F0BB
S214003390CFF89DF80730002B02D00120FFF746FF3C
S2140033A09DF8073083F00103DBB2002B01D021F03B
S2140033B0C5FF00BF05B05DF804FB00BF00ED00E0F0
S2140033C00000FF0F00B585B003468DF807309DF866
S2140033D00730002B02D00020FFF728FF144B1B6994
S2140033E0134A43F0040313611248FFF711FF05F078
S2140033F06DF821F072FF03902FF0C6FE039821F0BF
S21400340078FF05F095F89DF80730002B02D00120D4
S214003410FFF70CFF9DF8073083F00103DBB2002BAB
S21400342001D021F08BFF00BF05B05DF804FB00BFA4
S21400343000ED00E00000FF0F82B00190064BDB6E4F
S21400344023F03003019A12791146034A0B43D366E0
S21400345000BF02B0704700BF0040005000B585B006
S21400346001900B468DF80330019B002B03D1FDF72E
S2140034705FFD039001E0019B03930D4B1B78002B2F
S2140034800AD0039B0B4A934206D89DF80330194690
S214003490012000F011F806E09DF8033019460220DE
S2140034A000F00AF800BF00BF05B05DF804FB00BFDF
S2140034B0581C0020005A620210B586B003460A4621
S2140034C08DF8073013468DF80630FFF793FE034657
S2140034D01A469DF80730934240D0FDF729FD059027
S2140034E0059B04939DF80730012B03D10121059815
S2140034F021F0B2FE21F0F1FE03901A4B03F50053C3
S2140035001A464FF0007353669DF80730184621F0B0
S21400351045FF144C9DF80730184621F021FF03465E
S214003520236702E00F4BD3F884300E4B5B6E03F03C
S2140035300073002B06D10B4BD3F8843003F0200326
S214003540002BEFD0039821F0D4FE9DF80730022B15
S21400355005D10021059821F07FFE00E000BF06B0EF
S21400356010BD00BF0040005000B587B003468DF880
S21400357007300023059300230493444B03F5805340
S2140035801A464FF000435366414B03F580531A46E4
S214003590012353603E4B5B6C03F00103002B14BF0A
S2140035A0012300238DF80F30FFF70EFE9DF807303D
S2140035B0002B2BD1364B9B6803F001030293029B32
S2140035C0002B19D0324B03F500531A4601239360A3
S2140035D002E0049B013304932D4BDB6A03F00103E6
S2140035E0002B03D1049B2B4A9342F2D9049B294A11
S2140035F0934201D907230593254B03F500531A463A
S2140036000123536035E0049B01330493204BDB6AAF
S21400361003F00803002B03D0049B1E4A9342F2D902
S214003620049B1C4A934202D90723059321E0184BBA
S21400363003F500531A4620235362154B03F58053B7
S2140036401A46012393600023049302E0049B01338F
S21400365004930F4B5B6A03F02003002B03D1049BFB
S2140036600C4A9342F2D9049B0A4A934201D9072393
S21400367005939DF80F30002B01D0FFF79BFD2EF031
S214003680E5F8059B184607B05DF804FB008000507F
S214003690004009503F420F0000B585B001902B4B0B
S2140036A003F580531A464FF000435366284B03F544
S2140036B080531A4601235360254B5B6C03F00103CD
S2140036C0002B14BF012300238DF80F30FFF77CFD7D
S2140036D0019B5B785B001F4A43F00103D3631C4BDE
S2140036E09B6823F07402019B9B781B011343019A8D
S2140036F0D278002A01D0042200E0002214491343A5
S2140037008B60019B1B791B02019A92791146104A25
S2140037100B431361019B5B791B02019AD279114618
S2140037200B4A0B435361019B1B781846FFF71CFF9F
S2140037309DF80F30002B01D0FFF73CFD2EF086F8E9
S2140037400123184605B05DF804FB00BF008000505A
S214003750004009500040005082B0034600918DF8AA
S21400376007309DF80730002B0AD09DF80730012B54
S21400377006D09DF80730022B02D09DF80730032BA9
S21400378008489DF807200121009B994013465B00DE
S21400379013441B01034403F500531033196000BFA4
S2140037A002B0704700C0035082B0034600918DF807
S2140037B007309DF80730002B0AD09DF80730012B04
S2140037C006D09DF80730022B02D09DF80730032B59
S2140037D008489DF807200121009B994013465B008E
S2140037E013441B01034403F580531033196000BFD4
S2140037F002B0704700C0035082B003468DF8073011
S2140038009DF90730002B0CDB9DF8073003F01F02F4
S21400381005499DF907305B09012000FA02F241F8DC
S214003820232000BF02B0704700E100E082B00346EC
S2140038308DF807309DF90730002B13DB9DF8073015
S21400384003F01F0209499DF907305B09012000FAC1
S21400385002F2203341F82320BFF34F8F00BFBFF39F
S2140038606F8F00BF00BF02B0704700BF00E100E0EE
S21400387082B003468DF807309DF90730002B0DDB2C
S2140038809DF8073003F01F0206499DF907305B09D3
S214003890012000FA02F2603341F8232000BF02B094
S2140038A0704700BF00E100E082B0034600918DF84B
S2140038B007309DF90730002B0ADB009BDAB20C4973
S2140038C09DF907301201D2B20B4483F800230BE0B7
S2140038D0009BDAB207499DF8073003F00F03043B5C
S2140038E01201D2B20B441A7600BF02B0704700BF76
S2140038F000E100E000ED00E008B51520FFF796FFB8
S214003900094B00225A65084BFF229A62064B00229A
S2140039105A6000212020FEF7C9F900212120FEF779
S214003920C5F900BF08BD00BF0000045000B583B055
S21400393001900B468DF8033001999DF8033083F013
S2140039400103DBB21A46034821F0C7FD00BF03B0EF
S2140039505DF804FB4000045000B585B001900121DD
S2140039602020FEF7A3F901212120FEF79FF91B4B2B
S21400397001225A60019B1B781B060393174A039B80
S2140039809360019B5B781B04019A92781146134A58
S2140039900B439361114BFF229A62104B00229A63ED
S2140039A00E4B00221A640D4B4FF000425A650B4B2B
S2140039B003F500531A464FF0FF3313651520FFF743
S2140039C057FF019BDB7819461520FFF76DFF152082
S2140039D0FFF712FF00BF05B05DF804FB00000450BF
S2140039E000B587B0039002910192039BDBB21A46A2
S2140039F00123934005933E4B03F500531A46059B5F
S214003A0013653C49029B1A68039B41F82320029BDE
S214003A105B7B37491846039A13465B0013441B0129
S214003A200B4460331860029B9B7A1A04029BDB7A75
S214003A301B051A43029B1B7B5B0513432C49184648
S214003A40039A13465B0013441B010B445C33186057
S214003A50019B274823F00301039A13465B00134497
S214003A601B0103447033196021F04DFC0490204B79
S214003A705A6D1F49059B13434B65029B1B7A002B0F
S214003A8005D01B4B1A6C1A49059B13430B64029B0B
S214003A905B7A002B05D0164B9A6B1549059B134392
S214003AA08B63029B1B791B04029A92791343104A7C
S214003AB003F0FF1302F500529361029B5B791B042F
S214003AC0029AD27913430A4A03F0FF1302F5805292
S214003AD093610599084821F019FD054A059B9364F2
S214003AE0049821F020FC00BF07B05DF804FB00BF7F
S214003AF000000450004004503400045000B585B067
S214003B000190019BDBB21A4601239340039321F0F8
S214003B10FAFB0290084B5A6D039BDB4306491340A1
S214003B204B65054A039B9362029821F0FCFB00BF9D
S214003B3005B05DF804FB00BF0000045000B587B078
S214003B40019000238DF81730019BDBB21A46012343
S214003B509340049321F0D7FB03900C4BDA6A049B46
S214003B601340002B09D1094B5A6B049B1340049A4F
S214003B709A4202D101238DF81730039821F0D3FB27
S214003B809DF81730184607B05DF804FB0000045097
S214003B90094B03F580531A464FF400339366074BE0
S214003BA041F67132DA63054B03F500531A460123DA
S214003BB0D36000BF704700BF008000500000035075
S214003BC00A4B41F67132DA63084B03F500531A4686
S214003BD00123D360054B0022DA63054B03F500533F
S214003BE01A464FF40033936600BF70470000035038
S214003BF00080005084B001900091009B1B781A460C
S214003C00009B5B789B001A43009BDB785B011A43A2
S214003C10009B1B791B014FF0B04042EA0301019A5A
S214003C2013465B0013449B00034430331960009B2B
S214003C301B78012B09D1064B0393009B9978019BB7
S214003C409B00039A13440A461A6000BF04B07047EC
S214003C50E8800350014B5B691846704700C0075068
S214003C6000B585B00190114B03F580531A464FF40A
S214003C7080335366FFF7EEFF0390039B9B09DBB28E
S214003C8003F03F03DAB2019B9A70039BDBB203F0AA
S214003C903F03DAB2019B5A70039B1B0BDAB2019BFF
S214003CA01A7000BF05B05DF804FB00BF008000502E
S214003CB0F0B482B00E4B9B6C01930D4BDB6C002274
S214003CC01E4617464FF000024FF000033300002256
S214003CD0019E00273046394642EA000443EA0105C1
S214003CE022462B461046194602B0F0BC704700BF6D
S214003CF00080E00F024B1B681B0CDBB218467047B7
S214003D000080E00F82B0074B9B68DBB20193019BFB
S214003D100A3303F01F03012202FA03F3184602B027
S214003D20704700BF0080E00F82B001900B468DF810
S214003D300330019B0D4A934205D10D4A9DF803308E
S214003D40C2F88C3108E0019B0A4A934204D1084A23
S214003D509DF80330C2F89C31019BDB6D43F0800276
S214003D60019BDA6500BF02B0704700BF00C0055077
S214003D70008003500000065000B587B00390029103
S214003D8001928DF8033000230593029B002B04D18B
S214003D904FF42070FDF7BCFF02909DF80330602BB7
S214003DA013D0602B14DC402B0CD0402B10DC002BE7
S214003DB002D0202B03D00BE01023059309E0082344
S214003DC0059306E00623059303E00423059300E02D
S214003DD000BF059B002B2AD0029B5A01059B019928
S214003DE001FB03F35B0813440493059B019A02FB53
S214003DF003F3049AB2FBF3F30493049B203B04936F
S214003E00049BDB000493049A0B4B13400493039B20
S214003E109B6823F06002039B9A60039B9A689DF858
S214003E2003301A43039B9A60039B049ADA6100BF2F
S214003E3007B05DF804FB00BFF8FF7F0084B0019078
S214003E400B468DF80330019B144A934202D0019B27
S214003E50134A9342019B03F580531A46012353608D
S214003E609DF80330DB430393039B03F005030393A2
S214003E70039B5A00019B5A619DF80320019B5A61DF
S214003E809DF80330002B05D1019B03F500531A461D
S214003E900123536000BF04B0704700BF00C0055048
S214003EA00000065000B583B001900091019B554A72
S214003EB0934202D0019B544A9342019800F0A8F81E
S214003EC0019B03F580531A4601235360009B9B7C9D
S214003ED0002B05D0019B9B6843F08042019B9A60B3
S214003EE0009BDB7C002B05D0009B1B7D19460198B0
S214003EF0FFF71AFF009B5B7B1A46009B1B8A134347
S214003F00009AD2891A43019BDA60009B5968009B8D
S214003F109A68009B1B7B0198FFF72EFF009B5B7D3A
S214003F20002B05D0019B9B6843F48032019B9A606E
S214003F30009B9B7D002B05D0019B9B6843F40042B1
S214003F40019B9A60009BDB7D1B0703F0E042009B11
S214003F501B7E1B0503F4E0031A43019B9A65009B36
S214003F605B7E022B03D0009B5B7E032B16D1274A79
S214003F70019B24498B4208D0019B23498B4201D1E7
S214003F80012303E04FF0FF3300E000235B011344FE
S214003F9003F5B0531C3302221A6015E01B4A019B3E
S214003FA018498B4208D0019B17498B4201D1012347
S214003FB003E04FF0FF3300E000235B01134403F5FA
S214003FC018531C3302221A60009B5B7E012B03D021
S214003FD0009B5B7E032B06D1019B03F580531A469C
S214003FE00423D36505E0019B03F500531A4604231A
S214003FF0D365009B1B781A46019B5A6100BF03B02D
S2140040005DF804FB00C005500000065000C00350D9
S21400401082B00190019B254A934202D0019B244A1C
S2140040209342019B03F580531A4601235360019B7C
S21400403040F6AA625A61019B00229A60019B002208
S214004040DA65019B41F20502DA60019B00221A61E3
S214004050019B0022DA61019B0022DA64019B03F5D2
S21400406000531A46134B9364019B00229A65019BEA
S2140040700E4A934203D0019B0D4A934202D1019B04
S21400408000221A65019B094A934203D0019B084A05
S214004090934202D1019B00225A65019B03F500530F
S2140040A01A460123536000BF02B0704700C0055097
S2140040B000000650FFFF010030B583B00190019864
S2140040C02DF0E9FB064A019B14461D460FCD0FC492
S2140040D095E8030084E803000023184603B030BDCB
S2140040E0601C00208EB001900B468DF803301346FE
S2140040F0ADF80030BDF9003047F6FF72934201D1AB
S214004100FF23F7E09DF80330022B00F2F2809DF8C3
S21400411003307A4AD35C012B00F2EB809DF8033023
S214004120764AD35CDB00764A13440893089B9B7858
S2140041300793089B1B78012B2BD100230D93089B1C
S214004140DB781A46079BD31A0C9317E00C9A0D9B44
S214004150D31A5B080C9AD31A0393089B5A68039BDE
S2140041605B001344B3F90030BDF900209A4203DA2D
S214004170039B013B0C9301E0039B0D930D9A0C9B54
S2140041809A42E3D30C9BDAB2079BDBB21344DBB252
S214004190B0E0089B5B680693069B002B01D10023CA
S2140041A0A8E0069BB3F90030BDF900209A4204DD72
S2140041B0069B1B88ADF800300AE0069BB3F9023078
S2140041C0BDF900209A4203DA069B5B88ADF8003002
S2140041D0C823ADF82E302823ADF82C300023ADF8D8
S2140041E02A30069B9B88FF2B0DD1BDF82A30013361
S2140041F09BB2ADF82A30069BDB88ADF82E30069BC6
S2140042009B68ADF82C30BDF92E20BDF90030D21ACF
S214004210BDF92C3092FBF3F39AB2BDF82A30134462
S2140042209BB2ADF82A30089B5B781A46BDF92A3057
S2140042309A4203DDBDF92A30002B05DA089B5B782D
S214004240013B9BB2ADF82A30BDF92A30DB00069A56
S214004250134404330593059B5A68059BB3F9023053
S2140042601946BDF9003001FB03F313440493049B85
S214004270002B02DA0023099301E0049B0993099BB3
S2140042805C33204AA2FB03239B090993BDF92A301D
S2140042909BB201339BB2ADF82A30BDF92A30089A9A
S2140042A05278934209DABDF92A30069ADB001344A5
S2140042B09B881A46099B9342C6D9BDF92A30013B12
S2140042C0069ADB0013449B881A46099B934207D93B
S2140042D0BDF92A30013B069ADB0013449B880993FC
S2140042E0099A079B9A4201D2079B0993099BDBB266
S2140042F000E0002318460EB0704700BFA835030044
S214004300601C0020D34D621088B001900B468DF8DB
S214004310033013468DF802309DF80330022B00F26E
S214004320C1809DF80330614AD35C012B00F2BA804D
S2140043309DF803305D4AD35CDB005D4A1344069368
S214004340069B1B78012B26D1069BDB789DF8022066
S2140043509A4203D9069BDB788DF80230069B9B7841
S2140043609DF80220D31A8DF802309DF80220069B95
S214004370DB781946069B9B78CB1A9A4202DD00230F
S2140043808DF80230069B5A689DF802305B00134495
S214004390B3F9003087E0069B5B680593059B002B0E
S2140043A001D1444B7FE0059B04330493069B9B7826
S2140043B09DF802209A4203D8059BB3F9023072E0BA
S2140043C0069BDB789DF802209A4203D3059BB3F93F
S2140043D0003068E000238DF81F30069B5B78013BB9
S2140043E08DF80F30049B1B88FF2B14D101238DF80A
S2140043F01F3010E09DF81F300133DB00049A134491
S2140044001A889DF802309BB29A420BD39DF81F3053
S21400441001338DF81F309DF81F209DF80F309A420B
S214004420E8D300E000BF9DF802304FF47A7203FB39
S21400443002F29DF81F30DB0004990B445B68D31A28
S21400444002939DF81F30DB00049A1344B3F9023040
S214004450DA0F13445B101BB21A46029B13449DF8F6
S2140044601F20D20004990A44B2F9022093FBF2F30B
S2140044700293059BB3F900301A46029B934203DD74
S214004480059BB3F900300EE0059BB3F902301A46DF
S214004490029B934203DA059BB3F9023003E0029BCA
S2140044A01BB200E0034B184608B07047A83503005F
S2140044B0601C00200080FFFF08B50448FFF7FCFDE5
S2140044C001202DF0ECF900BF08BD00BFB83C03008A
S2140044D0014B1846704700BF800B002000B587B020
S2140044E001AB00221A605A609A60DA601A610223F1
S2140044F08DF804300B4B029302238DF80D30042305
S2140045008DF80E3002238DF8133005238DF8143005
S21400451001AB19464FF0FF302DF0F6F900BF07B09B
S2140045205DF804FB006A180082B001230193034A79
S214004530019B936000BF02B0704700BF0020025C82
S214004540014BDB68184670470020025C86B003907B
S21400455002910192009300230593019B1B0403F430
S2140045607022029B1B0203F470631A43039B03F042
S2140045700F031A43009B1B0603F070631343059357
S214004580024A059B136000BF06B070470020025C1D
S21400459000B587B003900291019200934FF000435C
S2140045A00493029B002B03D0029B013B059301E082
S2140045B000230593059BB3F5806F01D301231FE00D
S2140045C000BF21F086F80346002BFAD1049A039B1D
S2140045D013430493059B1A020B4B1340049A134390
S2140045E00493019B1B0703F08053049A1343049320
S2140045F0049A009B13430493044A049B53600023CD
S214004600184607B05DF804FB00FF03000020025CBC
S214004610014B1B68184670470040025C014B1B6844
S214004620184670470410025C014B1B68184670471A
S2140046303010025C014B1B68184670470010025C85
S21400464082B00190024A019B136000BF02B070471F
S2140046500810025C82B00190024A019B136000BF02
S21400466002B070474010025C82B003468DF80730F7
S214004670034A9DF80730136000BF02B0704700BFC2
S2140046804410025C82B00190024A019B136000BF96
S21400469002B070473410025C024B00221A6000BF62
S2140046A0704700BF0010025C08B5FFF7C3FF034663
S2140046B0024A43F00103136000BF08BD0010025C0D
S2140046C008B5FFF7B7FF0346024A23F0010313605D
S2140046D000BF08BD0010025C024B43F204021A60E1
S2140046E000BF70470010025C08B5FFF7A3FF034643
S2140046F0024A43F03003136000BF08BD0010025C9E
S21400470008B5FFF797FF0346064A43F48073136025
S214004710FFF790FF0346034A23F48073136000BF3D
S21400472008BD00BF0010025C08B5FFF783FF034614
S214004730024A43F48063136000BF08BD0010025CA9
S21400474000B583B003468DF80730FFF773FF0346C6
S21400475023F470229DF807301B04034913430B60B3
S21400476000BF03B05DF804FB0010025C82B001904D
S2140047700A4B1A68019B1A60094A019B04331268A7
S2140047801A60084A019B083312681A60064A019BA1
S2140047900C3312681A6000BF02B070471010025C3B
S2140047A01410025C1810025C1C10025C82B00190AF
S2140047B00A4A019B1B681360019B0433084A1B6866
S2140047C01360019B0833074A1B681360019B0C3378
S2140047D0054A1B68136000BF02B070471010025CE9
S2140047E01410025C1810025C1C10025C00B583B04A
S2140047F0019000BFFFF718FF034603F00103002BEC
S214004800F8D1034A019B136000BF03B05DF804FBB8
S2140048102010025C82B0044B0193019B01221A60B7
S21400482000BF02B0704700BFFCFFFF3F00B583B07B
S214004830019000910199074821F0B4F800990648C4
S21400484021F0B0F8054B03221A6000BF03B05DF8F4
S21400485004FB00BF0000025C1000025C3400025C37
S21400486082B010B586B001AC84E807000993029BBD
S2140048700C9A934228BF13460593039B03F080537C
S214004880002B04D0059B033323F003030593059BFD
S21400489023F070430593099B1946134821F082F8CC
S2140048A00B9B03F0E042059B1343104A43F0005372
S2140048B013600F4B00221A60019B19460D4821F029
S2140048C071F8039B03F0E042059B13430A4A43F04A
S2140048D000531360094B00221A6000BF06B0BDE803
S2140048E0104002B0704700BF0000025C0800025C87
S2140048F00C00025C1000025C1800025C3400025CD3
S214004900054B3F221A60054B10221A60044B032207
S2140049101A6000BF704700BF3000025C1C00025CDB
S2140049203800025C00BF044B1B6803F00203002B38
S214004930F9D100BF00BF70473C00025C054B1B6806
S21400494003F02403002B01D0042300E000231846C4
S214004950704700BF2800025C82B0084B1B680193BA
S214004960019B23F47F4323F0EF03002B01D00423A5
S21400497000E00023184602B0704700BF3C00025C0F
S21400498082B001900091019B5B68202B22D0202BE7
S2140049902FD8102B02D0182B0DD02AE0264B1B68E0
S2140049A003F08073002B01D1012342E0009B1A68BC
S2140049B0009B1A601FE0204B1B6803F00073002B5F
S2140049C001D1012335E0009B1B6843F00802009BE1
S2140049D01A6010E0184B1B6803F08063002B01D1AF
S2140049E0012326E0009B1B6843F00402009B1A602C
S2140049F001E007231DE0019B1B68104A934209D182
S214004A00009B1B6843F04002009B1A60019B00223B
S214004A105A600DE0019B1B68094A934208D1009B2F
S214004A201B6843F08002009B1A60019B00225A60BC
S214004A300023184602B070470404025C922A002045
S214004A40932A002000B587B00590049103920A4B84
S214004A501B6803F00103002B01D1012308E0039B30
S214004A600093049B059A0021002000F05DF80346A1
S214004A70184607B05DF804FB0404025C00B585B078
S214004A80039002910192094B1B6803F48073002B7C
S214004A9001D1012306E0019B029A0399002000F051
S214004AA08DF80346184605B05DF804FB0404025C66
S214004AB000B587B005900491039202930A4B1B68D9
S214004AC003F48073002B01D1012308E0029B0093BE
S214004AD0039B049A0599002000F0A6F803461846A2
S214004AE007B05DF804FB00BF0404025C00B587B0A5
S214004AF005900491039202930A4B1B6803F480739B
S214004B00002B01D1012308E0029B0093039B049A2B
S214004B100599002000F0C2F80346184607B05DF875
S214004B2004FB00BF0404025C00B591B00A9209932E
S214004B3003468DF82F300B468DF82E30099B5B68A8
S214004B4003F00F03002B09D1099B5B68002B05D0EF
S214004B50129B5A68099B5B689A4201D0072325E09E
S214004B609DF82E30134A52F8233043F480730F9387
S214004B70114A0CAB07CA83E807000CAA9DF82F0061
S214004B800CAB07930CAB06930CAB05930CAB0493E2
S214004B900CAB0393129B0293099B01930CAB0093FF
S214004BA013460A9A0F9920F0E7FF0346184611B0FD
S214004BB05DF804FBB8350300AC35030000B591B0D2
S214004BC00A910992089303468DF82F30089B5B687C
S214004BD0102B01D0072320E04FF480330F93114AA7
S214004BE00CAB07CA83E807000CAA9DF82F000CAB95
S214004BF00793089B06930CAB05930CAB04930CAB86
S214004C0003930CAB0293099B01930CAB00931346E2
S214004C100A9A0F9920F0B0FF0346184611B05DF8C7
S214004C2004FB00BFAC35030000B591B00A910992B1
S214004C30089303468DF82F30164B0F93089B5B683E
S214004C40102B03D1129B5B68102B01D007231DE0AD
S214004C50114A0CAB07CA83E807000CAA9DF82F0080
S214004C60129B07930CAB06930CAB05930CAB04930B
S214004C700CAB03930CAB0293099B0193089B009328
S214004C8013460A9A0F9920F077FF0346184611B08C
S214004C905DF804FB30000100AC35030000B591B0B0
S214004CA00A910992089303468DF82F30164B0F93FE
S214004CB0089B5B68102B03D1129B5B68102B01D0FE
S214004CC007231DE0114A0CAB07CA83E807000CAAAD
S214004CD09DF82F000CAB0793129B06930CAB059325
S214004CE00CAB04930CAB03930CAB0293099B0193A0
S214004CF0089B009313460A9A0F9920F03DFF03463F
S214004D00184611B05DF804FB10000100AC35030036
S214004D1082B010B588B003AC84E807000B93149BF0
S214004D20202B01D9012371E00499149A13469B00A5
S214004D301344994207D00499149A13465B0013440F
S214004D405B0099420DD10C9B149A9A4209D10F9A96
S214004D50149B5B009A4204D1129A149B5B009A4201
S214004D6001D0072352E0159B012214992220FFF759
S214004D700FFC0790079B002B01D0079B46E0002303
S214004D8006220E210C20FFF7E1FB012301930123ED
S214004D900093149B03AA07CA20F0C3FD0E230093BA
S214004DA0149B0BAA07CA20F0B0FC0C230093149B9C
S214004DB00EAA07CA20F0EEFC174B0693069B5B680C
S214004DC023F07F0343F02602069B5A6020F09DFDE9
S214004DD00790079B002B01D0062317E0069B5B6815
S214004DE023F07F0343F02202069B5A6020F08DFDDD
S214004DF00790079B002B01D0062307E006230093AD
S214004E00149B11AA07CA20F012FD0023184608B00A
S214004E10BDE8104002B070470020025C30B59BB081
S214004E202E4B08AC1D460FCD0FC40FCD0FC40FCDB3
S214004E300FC495E80F0084E80F00294B04AC0FCB95
S214004E4084E80F00274B6C460FCB84E80F00002346
S214004E501893FFF755FC0420FFF772FCFFF73CFCA5
S214004E606B461846FFF7A2FC002319930BE0199B2C
S214004E709B0068336B4453F8483C1846FFF7B6FC73
S214004E80199B01331993199B0F2BF0D900BFFFF71D
S214004E90C5FB0346032BFAD9FFF7FEFB0023199345
S214004EA00FE0FFF7B5FB0246199B9B0068336B4487
S214004EB053F8583C5340189A13431893199B0133E0
S214004EC01993199B032BECD9189B002B01D00623B2
S214004ED000E0002318461BB030BD00BF9436030028
S214004EE0D4360300E436030000B585B00190019B7C
S214004EF0002B0AD0FFF792FF0390039B002B04D0F1
S214004F000E4B01221A70062314E0FFF7F9FB082067
S214004F10FFF796FB0020FFF79DFB0720FFF7A4FB9B
S214004F204FF40070FFF7AEFB0820FFF709FCFFF711
S214004F30BBFB0023184605B05DF804FB942A00204E
S214004F4000B587B021F0DEF90590059B002B04D054
S214004F50114B01221A7006231AE0FFF759FB03468D
S214004F600193FFF755FB03460293FFF751FB0346F9
S214004F700393FFF74DFB0346049301AB1846FFF778
S214004F8015FC21F0F3F9FFF7AFFBFFF7CDFB00238D
S214004F90184607B05DF804FB942A0020024B012255
S214004FA01A7000BF704700BF952A002082B00346E3
S214004FB08DF807309DF80730062B1FD801A252F84F
S214004FC023F000BFE14F0000E54F0000F54F000062
S214004FD0E94F0000ED4F0000F14F0000F94F0000D0
S214004FE06C230CE05C230AE0542308E0802306E0F0
S214004FF0102304E0582302E0242300E00023184690
S21400500002B0704700B58BB0019000911F4B039320
S214005010019B04931E4B059346F61103069300F07E
S2140050201FFA0990099B142B04D107AB184621F0F0
S21400503089FA04E0099B002B01D0099B21E04FF080
S214005040A84303225A634FF0A84203AB13604FF005
S214005050A842009B13614FF0A84303229A6300BF47
S2140050604FF0A843DB6B03F00303002BF8D1099B3A
S214005070142B03D107AB184621F07CFA00F020FA77
S214005080034618460BB05DF804FB00BF781C0020F2
S2140050900400002010B5BAB00291019200930346B6
S2140050A08DF80F308F4B31AC0FCB84E80F00409A51
S2140050B0019B13445B4203F00F0337933D9B002B89
S2140050C004D03D9B5B4203F00F0300E010233693B1
S2140050D0419B2D9301232E93429B43F000532F9325
S2140050E0429BC3F110031B0203F4F85343F0210361
S2140050F030933D9B002B01D131AB00E0009B299300
S2140051009DF80F3083F00103DBB2002B04D0429BE6
S214005110002B01D02DAB00E001232A933D9B002BF2
S21400512003D03D9B43F0005302E0369B43F0005310
S2140051302B939DF80F30002B02D1429B002B01D100
S214005140212200E00122369B1B0203F4F85313438E
S2140051502C93029B259329AB2693019B43F0005387
S2140051602793379B1B0203F4F85343F0410328931D
S2140051703F9B2193019B002B01D025AB00E029AB80
S2140051802293019B002B01D0002201E04FF0005239
S214005190409B13432393019B002B06D1379B1B0296
S2140051A003F4F85343F0410300E0412324933E9B6D
S2140051B01D9321AB1E934C4B1F9340F61103209377
S2140051C09DF80F30002B01D0484B00E0484B199358
S2140051D01DAB1A93474B1B9311231C9315AB002250
S2140051E01A605A609A60DA6001231693429BC3F1F4
S2140051F0100343F08043179311AB00221A605A60E5
S2140052009A60DA609DF80F3083F00103DBB2002B62
S21400521001D031AB00E0419B1193429B102B01D093
S21400522015AB00E001231293429B13930DAB0022B3
S2140052301A605A609A60DA60429B002B01D011AB6C
S21400524000E001230E93369B43F080430F9309AB97
S21400525000221A605A609A60DA603C9B0993369B7B
S214005260002B01D00DAB05E0429B002B01D011AB0B
S21400527000E001230A933C9B002B02D14FF08042B2
S21400528000E000223D9B13430B9305AB00221A60FF
S2140052905A609A60DA603D9B002B01D009AB00E0B3
S2140052A00DAB0693409A019B1A44379B134443F078
S2140052B08043079305AA19AB11461846FFF7A2FECE
S2140052C03590359B002B01D0359B2BE09DF80F3099
S2140052D083F00103DBB2002B23D000233993002395
S2140052E0389315E0FC36030010000020F436030067
S2140052F0F83603000400002031AA389B13441B78BC
S214005300DBB21A46399B13433993389B01333893E3
S214005310389A429B9A42EFD3399B002B01D02C231C
S21400532000E0002318463AB010BD00BF00B5A3B099
S2140053300390029101920093029BB3F5807F0AD0FE
S214005340029BB3F5807F1CD8029B802B0FD0029B5C
S214005350C02B0AD015E0249B002B02D040F2344329
S21400536001E040F2144321930DE00F2358E0249B04
S214005370002B02D04FF4866301E04FF48263219342
S21400538001E029234CE0249B1D9301231E93102348
S2140053901F9321232093259B1993249B002B01D038
S2140053A01DAB00E001231A9310231B9301231C93CB
S2140053B0019B15930123169310231793212318930B
S2140053C0194B119315AB1293184B139342F6110316
S2140053D01493009B0D9315AB0E9310230F9342F678
S2140053E01103109321AB0993009B002B01D00DAB4A
S2140053F000E011AB0A9304230B9311230C93039B39
S214005400059309AB0693029BDB08079340F611034E
S214005410089319AA05AB11461846FFF7F3FD034695
S214005420184623B05DF804FB1C370300100000107C
S21400543000B583B0094B1B68002B04D10421074834
S21400544004F020FE0190054B1B68013343F0004337
S214005450024A136000BF03B05DF804FB781C00200E
S21400546008B5154B5B6E144A43F004035366124BA3
S214005470D3F88032104A43F00103C2F880320F4B53
S2140054805B68C3F30803002B09D000BF4FF0A843A6
S214005490DB6B03F04303002BF8D114230AE000BFB4
S2140054A04FF0A843DB6B03F04303002BF8D1FFF764
S2140054B0BFFF0023184608BD0080005000ED00E046
S2140054C0054B5B68C3F30803002B01D0002300E004
S2140054D000231846704700BF00ED00E0084B03F5B8
S2140054E080531A464FF400539366054B03F58053DA
S2140054F01A460323C2F8603200231846704700BFDE
S21400550000800050084B03F500531A464FF4005332
S2140055109366054B03F500531A460323C2F8603220
S21400552000231846704700BF0080005010B582B0B8
S2140055300190019821F045F80346012202FA03F48F
S214005540019821F033F803460F4A52F823202146EB
S2140055500A430D4941F82320019821F032F803460A
S214005560012202FA03F3DC43019821F01FF80346F8
S214005570064A52F8232021460A40044941F82320CF
S21400558000BF02B010BD00BF7C1C0020901C002095
S21400559010B586B00190019821F013F80346012259
S2140055A002FA03F4019821F001F80346164A52F86D
S2140055B0232021460A43144941F82320002305935B
S2140055C00023049309E0114A049B52F82330059AFD
S2140055D013440593049B01330493049B042BF2D9D4
S2140055E0059B002B0DD10023039307E0064A039B7F
S2140055F0002142F82310039B01330393039B042BE3
S214005600F4D900BF06B010BD901C00207C1C002002
S21400561010B582B00190019820F0D3FF0346012216
S21400562002FA03F4019820F0C1FF0346054A52F837
S214005630232021464A40034941F8232000BF02B0F8
S21400564010BD00BF7C1C002010B582B001900198F0
S21400565020F0ACFF0346094A52F82340019820F098
S214005660B0FF034624FA03F303F00103002B14BF34
S21400567001230023DBB2184602B010BD7C1C0020BC
S21400568010B582B00190019820F090FF0346094AB9
S21400569052F82340019820F094FF034624FA03F3BF
S2140056A003F00103002B14BF01230023DBB21846CE
S2140056B002B010BD901C002082B00190019BA3F5A3
S2140056C00622A2F6FF42074BA3FB0213D9080B469D
S2140056D0DB010B44D11A01F5062303F55063184687
S2140056E002B07047813FE00F00B583B0CDE90001FE
S2140056F0DDE9000120F06DFF0146084BA3FB012306
S214005700DA081346DB011344CA1A02F5062303F52A
S2140057105063184603B05DF804FB00BF813FE00FFE
S21400572000B5A9B012AB4022002118462CF01CFE92
S21400573002AB4022002118462CF016FE2A4B279377
S21400574047E0279B10332693269B284A934201D98D
S214005750264B2693264B1868269B013B12A90093DE
S214005760279B10222BF025FE2390002325930BE089
S214005770259B9B00A0336B4453F8583C1846FFF714
S214005780D5FE259B01332593259A239B9A42EFD37A
S214005790174B1868269B013B02A90093279B1022F3
S2140057A02BF010FE2290002324930BE0249B9B00FA
S2140057B0A0336B4453F8983C1846FFF7E9FE249B49
S2140057C001332493249A229B9A42EFD3279B1033CB
S2140057D02793279B074A9342B3D9074B01221A7097
S2140057E000BF29B05DF804FB006D080000710800DA
S2140057F05C0B0020FF700800962A002000B58BB0D6
S2140058000590049103920293039B002B02D0039B06
S21400581000221A60029B002B02D0029B00221A6014
S2140058201D4B1868102300930023049A059916F060
S21400583027FB0990099B002B01D0099B27E0039BBF
S214005840002B02D0039B10221A60049B1B68134A8D
S214005850934201D0124B1AE0039B002B16D0029BFA
S214005860002B13D00C4B186807AA029B059916F05C
S2140058705BFB0890089B002B01D0089B07E0029B6F
S2140058801A68039B1B68D21A029B1A60099B18466B
S2140058900BB05DF804FB00BF5C0B0020105D175ECC
S2140058A0FFDF00F000B589B0CDE902010093134692
S2140058B08DF807300023069300230593DDE90201E7
S2140058C0FFF712FF05904E4B1B7883F00103DBB207
