S02B00002F686F6D652F6E696E6F2F4D6172696E65726F5F444F415F424C452F536F435F5461672F536F435F06
S214012000C00A0020D1290100390A0300390A030059
S21401201081160300390A0300390A0300390A03004E
S214012020390A0300390A0300390A0300390A030092
S214012030390A030068C2030099270300390A03001E
S214012040390A0300390A0300390A0300390A030072
S214012050390A0300390A0300390A0300390A030062
S214012060390A0300390A0300390A0300390A030052
S2140120701D680100390A0300390A0300390A030002
S214012080390A0300390A0300390A0300390A030032
S214012090390A0300390A0300390A0300390A030022
S2140120A0390A0300390A0300390A0300390A030012
S2140120B0390A0300A5F30200390A0300F9FD0200FC
S2140120C063B703005FB70300E9F502006FB70300CB
S2140120D067B70300D1FD02006BB7030039FE0200AB
S2140120E0D9D602009DD80200A9FE0200390A0300D3
S2140120F0390A0300390A0300390A0300390A0300C2
S214012100390A0300390A0300390A0300390A0300B1
S214012110390A0300390A0300390A0300390A0300A1
S214012120390A0300390A0300390A0300390A030091
S214012130390A0300390A0300390A0300390A030081
S214012140002370B5404C05468AB0E36318B1008899
S21401215023600BF0E3F93D4828F09AFD3C4E3D4BD9
S214012160304633603C4B736024F040F80021304623
S21401217017F0C8F832A3D3E90023A062C4E9062306
S21401218024F03FF8D4E9062319431043C4E90601B5
S214012190CDE900014FF0FF334FF0FF32A06A28F07F
S2140121A0F2FD02224FF0FF31A06A28F0F1FD012076
S2140121B00AF0F0FE4FF4007300222849A06A28F0C6
S2140121C03BFEB0F5007F38D100239422CDE90733DA
S2140121D009933C23CDE9033205939623A06A03A90C
S2140121E0069317F0ADF935B3287C0BF05BFC05467A
S2140121F0F0B9A06A28F003FF0BF002FC0AF0A6FE75
S21401220020B14FF48070002108F04EFC0AF0AEFEBB
S21401221020B14FF40060002108F046FC24F0D0F90C
S214012220012017F0C3F80E4A0E49A06A23F0DCFF1E
S21401223028460AB070BDFF20D7E70725F8E700BF9C
S2140122400DD5015520000000380F0020690345EC2C
S2140122503C2000200DCE01004C2000203C1E00201A
S21401226091610300D16103000348044B834202D00D
S214012270034B03B118477047C40E0020C40E00205C
S21401228000000000064B0749C91A891048BF0131F2
S214012290491003D0044B0BB101481847704700BFE3
S2140122A0C40E0020C40E00200000000010B5064C2D
S2140122B0237843B9FFF7D8FF044B13B10448AFF3B3
S2140122C000800123237010BD8E270020000000002F
S2140122D0840F040008B5054B1BB105490548AFF34B
S2140122E00080BDE80840FFF7CDBF00BF000000003A
S2140122F098110020840F0400A3F5803A704700BFB0
S214012300174B002B08BF134B9D46FFF7F5FF002127
S2140123108B460F461348144A121A20F022FB0E4B26
S214012320002B00D098470D4B002B00D0984700207B
S214012330002104000D000D48002802D00C48AFF320
S214012340008005F0D9F92000290020F0B3FA05F045
S214012350C1F900BF000008000000000000000000F6
S214012360C00A0020C40E00207429002000000000CE
S214012370000000000368184A23F47F4323F0070394
S214012380934213B526D1B0F80530282B22D1827A94
S2140123900479012A1BD1C37ADB0714D50023114621
S2140123A08DF80430204601AB0FF056FA41F2FC13CB
S2140123B0002818BF1846C2B22821204602B0BDE840
S2140123C010400FF0A5BA20460FF05CFAEEE741F296
S2140123D00D10F0E702B010BDA0000A02036837B581
S2140123E023F47F43374A23F00703934207D002F1D1
S2140123F0027202F58032934206D003B030BD03B0BC
S214012400BDE8304000F0AEB8B0F805400579A4F15B
S2140124101E03827A082BF0D801A151F823F000BFE1
S21401242045240100FB23010057240100FB23010082
S21401243095240100FB23010067240100FB23010012
S214012440AF240100012A39D1C37A9A1E122A24D850
S2140124501D4A13701BE0012A30D1C37A5A1E0E2A78
S2140124601BD81A4AF5E7531E012B27D8002300F183
S2140124700B010DF10600ADF8063020F027FA144ADC
S214012480BDF8063012889A4207D8124A138000F027
S21401249025F820B141F2FC1001E041F2FF10C2B272
S2140124A02146284603B0BDE830400FF031BA012A74
S2140124B004D1C37A012BF0D8074ACAE741F20D10BE
S2140124C0EDE700BFA0000100912700209027002023
S2140124D064C20300342700208F2700201FB51B4B42
S2140124E01B4C1B78207853B91A4B1A88002300938B
S2140124F0114620780FF0FEF830B104B010BD0FF091
S2140125001BF90028F0D0F8E7134B01211B7820783F
S214012510012B14BF012202220FF048F90028ECD14A
S2140125200146022220780FF06DF90028E5D103ABB1
S2140125300193012309490093094B02468DF80C00CB
S2140125401B78097820780FF0AFF9D6E7922700209C
S214012550C40C0020342700208F270020912700205C
S2140125609027002073B51421134B01251A889B78F8
S214012570ADF80420114A8DF8063011702021002391
S2140125800F4A104E1570104A104C1180104A3046F2
S214012590237013700FF096F800B1FEE70321307830
S2140125A001AA0FF019F900B1FEE7FFF797FF00B196
S2140125B0FEE7257002B070BD60C2030091270020BF
S2140125C090270020C40C00203427002092270020EA
S2140125D08F27002008B5064B834207D1054B1B7891
S2140125E023B1C8B20FF026F900B1FEE708BD00BF5F
S2140125F0B01100209327002030B500250368344A27
S21401260023F47F4323F0070385B0934204460295E3
S214012610ADF80C5035D002F5802293420CD0A2F1D1
S2140126208272934251D12B4B1B78002B4DD005B0B3
S214012630BDE830401FF00DB9B0F805301B2B44D172
S214012640FF2304A91A4611E903001EF0D7F9012851
S21401265014BF41F2FC151F4B4FF01B0108BF187049
S21401266005F0FC0220790FF053F900B1FEE71A4994
S21401267000902379194A0968194800F06DF820B3CB
S214012680FEE7B0F80530B7EE047A07EE903AF8EEBA
S214012690677AB0F8073067EE877A013307EE103AAB
S2140126A0B8EEC77A67EE877AB1EE047A67EE877A74
S2140126B0FAFE677AFCEEE77A17EE903AB3F57A7F80
S2140126C038BF4FF47A73044A136005B030BD00BFBB
S2140126D0A000060293270020C00A0020D52501008D
S2140126E0B011002038B505461EF0DCFA00230B4A6F
S2140126F014685CB1AC4206D1A96A6BB199621EF04E
S214012700D7FA012007E02346A46AF2E7002DF3D0AA
S2140127101EF0CEFA204638BD1160F0E7E811002021
S21401272010B5044698B103F025FE2046FFF7DAFF00
S21401273010B194F82C300BB9002010BD1EF0B2FA7F
S214012740044A1368013B13601EF0B2FAF4E7222034
S214012750F3E700BFEC1100202DE9F04385B00546F4
S214012760914698460E469DF8307009B9002F5CD107
S2140127702846FFF7D5FF0446002836D185F82C00F9
S214012780686303F0E9FE864233D903F085FE2146ED
S214012790844640F2E7304FF47A720023E6FB0C01E0
S2140127A004F008FE4FF0FF32002304F003FE2B4630
S2140127B0E88611462846CDE900441D4A1EF0D6FF9C
S2140127C0044690B9C5E9089885F82D702E631EF069
S2140127D069FA184A136833B31A469B6A002BFBD171
S2140127E095620023AB621EF063FA204605B0BDE891
S2140127F0F08347B12B4631462846CDE900440C4AC2
S21401280003F06EFEDCE7304603A903F04BFE0446F8
S2140128100028EAD12B462846CDE90077044A0399D9
S2140128201EF080FFCCE71560DBE72124DDE700BF63
S21401283039280100E811002091F82C3013B50C4618
S21401284083B98B8ECA8E93420ED243B9CDE900333B
S21401285020460B46104A4FF0FF311EF047FFA38E6D
S2140128600133A38602B010BD52B191F82D307BB171
S21401287001230093D1E908232046096BFFF76CFF7B
S2140128800123064A84F82C30136801331360E9E704
S214012890084603F06FFDF3E739280100EC1100202C
S2140128A02DE9F041144E336823B34FF00008134F5F
S2140128B01EF0F8F905463C6824B92846BDE8F04103
S2140128C01EF0F6B994F82C3093B1336884F82C8056
S2140128D0013B336094F82D3013B92046FFF702FF11
S2140128E028461EF0E5F9D4E9083120469847DFE787
S2140128F0A46AE1E7BDE8F081EC110020E8110020B0
S214012900034B1B68002B14BF04200120704700BF37
S214012910EC110020024B1868B0FA80F040097047AD
S214012920EC11002000239B6A10B5B3F5903F11D23D
S21401293019680A4A91420DD1094C227812F0FD0F0E
S21401294001D0002010BDDB6998470028FAD1012389
S2140129502370F6E74FF48170F4E700BF07B0CD5E51
S214012960942700204FF00053074A1A60BFF34F8F99
S2140129700649074BCA6802F4E0621343CB60BFF313
S2140129804F8F00BFFDE700BF02020FF000ED00E031
S2140129900400FA050346054A0549106803448B42BC
S2140129A08CBF4FF0FF301360704700BFC40A002091
S2140129B0008000200348044A0449121A92101EF0AF
S2140129C03CB800BF9C1304009C130400742900202B
S2140129D008B500F02FF8FFF7EDFF124B12498B42B6
S2140129E012D30020114B12498B4218D3FFF788FCF3
S2140129F0186850F82240586840F82240013298681A
S214012A008242F5D30C33EAE70022F8E71C6844F863
S214012A10220001325C68A242F8D30833E4E70022C0
S214012A20F8E700BF8C0F0400980F0400980F04000D
S214012A30980F04004FF400414FF0FF30124B134A39
S214012A4010B59A60D3F8882042F47002C3F8882043
S214012A500F4A916601F1884101F5005210664FF662
S214012A60DF7050660220C3F8D000BFF34F8FBFF36C
S214012A706F8F08244FF440330648C0F88041D36076
S214012A8004600B6110BD00BF00ED00E000200100F6
S214012A900090005000E100E0014B1868704700BF4D
S214012AA0CC0A0020084B1B6F03F00703022B04D04F
S214012AB0032B05D0012B05D0FEE7044B18687047A1
S214012AC0034BFBE70348704700800050CC0A002008
S214012AD0D40A0020002D310108B5FFF7E3FF054BAE
S214012AE01B6FC3F303330133B0FBF3F0024B1860E3
S214012AF008BD00BF00800050C80A0020004870478B
S214012B0000B4C404014B1868704700BFD40A002003
S214012B10054B1860054B1B6F03F00703032B01D110
S214012B20FFF7DABF704700BFD40A002000800050CC
S214012B3000487047002D3101014B1868704700BFEF
S214012B40D00A0020024B1968024B186815F0ECBF3A
S214012B50D80A0020F80A002070B5940022460546DF
S214012B600E4629F059FB431C0AD058B92246314675
S214012B7028461FF0CCFE0028034808BF002070BD81
S214012B800248FCE70248FAE710E000F021E000F016
S214012B9024E000F010B5044629F046FB431C10D093
S214012BA088B900F07FFF234620F0030020449842B6
S214012BB001D1002010BD53F8042B0132F7D0034891
S214012BC0F8E70348F6E70348F4E700BF0EE000F035
S214012BD021E000F024E000F008B51EF05CF8014B9F
S214012BE0186008BDE0180020014B18681EF057B8A1
S214012BF0E0180020044BD3F88420D206FBD4D3F887
S214012C008400C0F3811070470040005038B5104B67
S214012C100546D3F820310C4603F00303022B0BD0F4
S214012C20032B0DD0012B0FD1FFF736FF052305B17E
S214012C30286004B1236038BDFFF764FF0323F6E77D
S214012C40FFF776FF0223F2E701230020EFE700BF3C
S214012C500080005073B50D4600210E4B0191D3F84C
S214012C608041064604F00304012C09D0022C0CD046
S214012C700C460EB1019B336005B12C6002B070BDED
S214012C8001A8FFF7C3FF0F24F3E7FFF751FF0190F9
S214012C90EFE700BF0080005038B5184B0546D3F863
S214012CA024010C4600F00700062823D8DFE800F0D0
S214012CB0040A121A1E0E1600012305B1286004B17B
S214012CC0236038BDFFF7E8FE0523F6E7FFF7E4FECD
S214012CD00623F2E7FFF716FF0323EEE7FFF712FFDF
S214012CE00423EAE7FFF724FF0223E6E71DF0B0FE20
S214012CF00723E2E700231846DFE700BF0080005005
S214012D0038B5104B0546D3F840310C4603F00303A3
S214012D10022B0BD0032B0DD0012B0FD11DF09AFEE9
S214012D20092305B1286004B1236038BDFFF704FF0D
S214012D300823F6E71DF091FE0B23F2E7012300209E
S214012D40EFE700BF0080005038B5144B0546D3F8B6
S214012D5000020C4600F0070004281BD8DFE800F04C
S214012D6003090D111500012305B1286004B1236084
S214012D7038BD1DF06FFE0923F6E7FFF7DDFE0823D9
S214012D80F2E71DF06AFE0B23EEE7FFF7A5FE0E2322
S214012D90800AE9E700231846E6E700BF00800050F6
S214012DA038B5104B0546D3F840320C4603F0030302
S214012DB0022B0BD0032B0DD0012B0FD11DF04AFE99
S214012DC0092305B1286004B1236038BDFFF7B4FEBE
S214012DD00823F6E71DF041FE0B23F2E70023184611
S214012DE0EFE700BF0080005038B5104B0546D3F81A
S214012DF060310C4603F00303022B0BD0032B0DD0DE
S214012E00012B0FD11DF026FE092305B1286004B160
S214012E10236038BDFFF790FE0823F6E71DF01DFE80
S214012E200B23F2E701230020EFE700BF00800050EC
S214012E3010B40D4C0B46D4F8204204F00304012CC8
S214012E400AD0022C0CD008B1002101600BB100227F
S214012E501A605DF8044B70475DF8044BFFF7D6BE69
S214012E605DF8044BFFF74CBF0080005038B50C46A8
S214012E7005461DF010FF054B9A6A54402C405440FD
S214012E809C62BDE838401DF00ABF00BF00C000507C
S214012E90B0F5207F1FD009D8B0F5007F15D003D834
S214012EA068B1B0F5C07F0AD000200CE0B0F5607FB5
S214012EB0FAD10B4BD3F88000C0F3011003E0084BA6
S214012EC0186FC0F3033001307047054BD3F89000FC
S214012ED0C0F30460F7E7024B186FC0F38020F2E7F7
S214012EE0008000504FF400320E4B014610B5002012
S214012EF09A66FFF7CDFF484341F671320A490B4BFC
S214012F00884294BF00200120DC69DA639A6822F4C3
S214012F10401242EA00529A60E20344BF0022DA639A
S214012F2010BD00BF00900050005A6202000003501E
S214012F30420910B50FD0012A0FD00A4B0A4C022ABB
S214012F4018BF234600F01F0049B103F58053012244
S214012F5082401A6010BD1346F4E7044BF2E703F50E
S214012F600053F4E76880005060820050648000508F
S214012F7008B580201DF0B1FD034B98429EBF4FF46B
S214012F808032024B1A6708BD005A620200A0005048
S214012F901FB50023B0F5807F019377D028D8382855
S214012FA000F094800BD82438092810D809280ED8A8
S214012FB0DFE800F0676767670D0D620D377D522801
S214012FC05FD008D83D283BD03E2800F08480019889
S214012FD005B05DF804FB8028F9D1414B1B6F03F067
S214012FE00703013B032BF2D8DFE803F044413F6CB3
S214012FF0B0F5D06F5BD019D8B0F5A06F66D00AD8FF
S214013000B0F5806F3DD0B0F5906FE0D1002001A9FA
S214013010FFF742FEDBE7B0F5B06F2DD0B0F5C06F1D
S214013020D5D1002001A9FFF76BFED0E7B0F5006F00
S214013030ECD00AD8B0F5E06F4DD0B0F5F06FC6D140
S214013040002001A9FFF7D0FEC1E7B0F5086FBED199
S214013050234BD3F8003103F00303022B2CD0032BB0
S2140130602ED0012B30D1FFF74DFD032300E00523C1
S2140130700193ACE70223FBE7002001A9FFF7EAFD75
S214013080A5E7002001A9FFF7C1FDA0E702934FF0D5
S214013090E0231B695B0705D5FFF71EFD0C23039391
S2140130A0039BE5E703A902A8FFF72AFEF8E700203D
S2140130B001A9FFF749FE8AE7FFF73EFD0823D7E798
S2140130C01DF0C6FC0723D3E70123D1E7002001A9A1
S2140130D0FFF7AEFE7BE7002001A9FFF761FE76E76A
S2140130E0008000504FF40022034B5A66012203F57C
S2140130F080439A62704700BF0090005008B5FFF702
S21401310047FF082811D00938012802D94FF6FF7069
S21401311008BD4FF40012064B5A6603F5D8335B6AB6
S214013120DB07F3D54FF4FA70F2E7024B1888EFE7A6
S214013130009000504A0C0020F8B504468020FFF7A6
S21401314027FF032800F087804FF40022424B02211C
S2140131505A6645F60E03414AC2F88030404B9962E2
S214013160012103F580539962936DD903FCD4D4E908
S21401317000131B0543EA0163E17B94F820500B43DF
S214013180217BE77E43EA0143617B6D0143EA01331C
S214013190A17B43EA811313619169D4E904031B06F9
S2140131A043EA806301F000410B43A17E94F82300BB
S2140131B00B43217E43EA0143617E43EA0123936187
S2140131C0136AE66923F00D0394F8221043EA870395
S2140131D0002E2DD11362966A94F8213045EA031326
S2140131E026F033052B4343F0010393621D4D1B4B21
S2140131F09A6D35EA0202FBD10222194DAA621A65BE
S2140132009A6D5200FCD41A69A56822F4700242EA4B
S21401321005521A614FF00042114B9A6119B9022208
S21401322003F580539A6278B901220F4B9A620BE03C
S214013230334343F008031362936A23F033030343D3
S2140132402B4343EA4103936294F824301BB1034BAA
S214013250064AC3F88020F8BD0090005000C0005018
S21401326000D000500300014000E00050F1A7FFFF2E
S2140132701E4BFF2870B59E6A35D89A6D12F4803FB2
S21401328018BF01211A4A18BF9162022191629B6DF3
S214013290DC0303D5154A936D9907FCD50222144B1E
S2140132A0124D1A65AC6D14F08044FBD1114AAB691E
S2140132B092F9002023F47F03024423F47F4382F330
S2140132C0080243EA002343EA0243AB613146022087
S2140132D0FFF7CCFDAB6DDB0303D531460120FFF7CD
S2140132E0C5FD204670BD2124FBE700BF00C000508D
S2140132F000D0005095270020014B93F9000070473D
S2140133009527002001221548154B816A9A62826D25
S21401331002F00302032AFAD102229A621A650F4AC0
S214013320936D5B00FCD40F48936D30EA0303FBD129
S21401333001220B4B1A65A3F580539A6D9007FCD4B6
S2140133409A6D9207FCD50222054B1A65034A936DC6
S2140133509B07FCD50320FFF789BD00BF00C00050C6
S21401336000D0005003000100F0B5D0E901434FF44E
S21401337080061A4A4178057856664FF4D1560227D8
S21401338002F5B8325662164E4F2977604FF00107A4
S21401339028BF4F2106F5805677601669F603FCD4E0
S2140133A041EA052151611B01417B43EA04230B439A
S2140133B0017B43EA41039360C37B817B1B0143EAA4
S2140133C04113417C0B43017C43EA41035360837CF8
S2140133D013B16FF4D1535362F0BD00BF009000509B
S2140133E000100250014B1880704700BF4A0C0020A5
S2140133F0014B1880704700BF480C00204FF40012A4
S21401340008B5184B5A660223174A5360936813F49B
S2140134108033FBD1012822D1FFF774FB134B98426E
S21401342015D003F5122303F5F863984213D0104B19
S21401343000EB8002400AB3FBF0F3520A0A49CA6263
S2140134400B6301234B620022074B5A6008BD45F609
S2140134507A13084AF2E745F61A03074AEEE753627B
S214013460F1E700BF009000500040025000F0490212
S21401347064666666D8B80500BBCF0500B0F5207F48
S21401348010B50C4642D008D8B0F5007F33D003D82B
S21401349088B1B0F5C07F0ED010BDB0F5607FFBD10E
S2140134A01F4A4C1ED2F8803023F0300343EA04133F
S2140134B0C2F88030F0E71DF008FB1DF0D2FB4FF498
S2140134C08031184B164A1967136F013C23F4704379
S2140134D043EA04331367FFF7FFFA0446FFF78AFB54
S2140134E0C0F1020120461DF0B6FB00F02DF8BDE844
S2140134F01040FFF73DBD0A4A4C1ED2F8903023F02B
S214013500F85343EA0463C2F89030C5E7044A4C1EF8
S214013510136F23F4806343EA84231367BCE700BF79
S214013520008000500090005008B50121022000F0F4
S214013530D7F81DF0CAFA1DF094FB4FF48032014B08
S2140135401A6708BD0090005008B54FF4C0701DF012
S214013550C4FABDE808400449884294BF012102210B
S2140135604FF42070FFF78ABF80F0FA02034B5868C9
S214013570C0F30800003818BF0120704700ED00E0D6
S21401358010B5224B70B94FF40031214A18605166CC
S21401359002F598325268012A03D11E4AD2F8002158
S2140135A01A6010BD1B68002BFBD01B4A5268012A0B
S2140135B0F7D0184A8020C2F80031FFF7E9FC052849
S2140135C01FD14FF4C070FFF763FC0128044604D1F5
S2140135D002214FF4C070FFF751FF07220F4B1A610B
S2140135E00122A3F580535A600B4A1369DB07FCD509
S2140135F0012CD6D12146BDE810404FF4C070FFF72C
S2140136003DBF0122064B5A60CBE700BFE4180020FD
S214013610009000500080005000C0015000E00150B2
S21401362000D00150044A4178536F23F4407343EAB3
S21401363001235367704700BF0040005010B5044691
S21401364010B10020FFF79CFF0E4A136943F00403F4
S214013650136102F061FC1DF02EFB1DF01CFB28F02F
S214013660DFFD1DF01CFB1DF027FB02F07DFC1CB9E5
S214013670BDE81040FFF730BA0120BDE81040FFF763
S2140136807FBF00BF00ED00E010B5044610B100207A
S214013690FFF776FF0C4A136943F00403136102F047
S2140136A03BFC1DF0F8FA28F0BBFD1DF0F8FA02F01D
S2140136B05BFC1CB9BDE81040FFF70EBA0120BDE85F
S2140136C01040FFF75DBF00BF00ED00E0034A01793F
S2140136D0D36E23F030030B43D3667047004000508F
S2140136E0F8B504461C4BD3F88420D106FBD4D3F896
S2140136F08430C3F381139C422CD0FFF7D3F9012CFD
S214013700064602D121461DF0A6FA1DF0C4FA4FF076
S2140137100072124B07465A6620461DF0D4FA4FF443
S21401372080630D4D621E93402B676B6E9A0103D426
S214013730D5F884309B060AD538461DF0B0FA022C1F
S21401374008D13046BDE8F84000211DF084BAD5F80E
S2140137508430EAE7F8BD00BF00400050006000502A
S21401376010B50C4608B9FFF79DF9074B21461B78A3
S2140137703BB1064B984204D80120BDE81040FFF744
S214013780AFBF0220F9E700BF96270020005A620269
S2140137900278034B012100201A70FFF7E1BF00BF3A
S2140137A0962700204FF0004238B5264B26495A6628
S2140137B001224A604AF6CD3103F50B235D6C19648C
S2140137C0154030BB9968C9070BD4002401221F4B52
S2140137D05A6015B11E4B1F4A1A6427F0ECFA2046B0
S2140137E038BD1A498A601C4AD96ACC0705D490426A
S2140137F001D10724EAE70130F6E79042E5D1F8E780
S2140138000132DC6A14F0080406D08A42F8D1072493
S214013810DFE700221049F4E78A42F8D020220B4B5A
S2140138200B495A620122A3F580539A6023460A4A3D
S214013830486A800603D49342E9D00133F8E79342FD
S214013840C7D1E4E7009000500050095000600950CD
S214013850004009503254FFFF40420F004FF0004233
S21401386038B5174B174C5A66012203F50C235A60DC
S2140138704AF6CD33656C2364437893401343124A6A
S214013880D363C3788178A2689B0043EA011322F0D0
S21401389074021343A3600279837943EA0223236106
S2140138A04279C37943EA022363610078FFF77AFF1E
S2140138B0EB0744BF054B236427F07DFA012038BD92
S2140138C00090005000400950004000503254FFFF65
S2140138D0F8B504460D461F4616464AB101238B40ED
S2140138E03021184A01FB0022F7B141F21001535072
S2140138F004EB4403072D4FF00F014FEA031316D8CC
S214013900A80006FA00F281400F4818441DF0DCF9C1
S2140139104EB9012330210B4AAB4001FB042277B19B
S21401392041F210015350F8BD42F21001DFE7A5F154
S2140139300800800006FA00F281400448E5E742F2FA
S2140139401001EFE700C0035004C003500CC0035041
S2140139504FF40032054B9A6641F6713203F51C337B
S214013960DA63012203F50053DA60704700900050D5
S21401397041F671320121064BDA6303F50052D1603C
S2140139800022DA634FF40032A3F518339A667047C3
S21401399000000350CB784A7810B55B010C7843EAF7
S2140139A082030A79234343EA02130C22424302F1BB
S2140139B0B0421363012C02BF8A78024B43F82020E1
S2140139C010BD00BFE880035008B54FF0B0435A68F9
S2140139D06AB958B15B680BB11DF085F901210D4B31
S2140139E059601DF080F94FF0B043D96008BD5B689F
S2140139F00BB11DF078F90028F0D11DF074F94FF0E5
S214013A00B0430222DA601DF06EF90122024B5A60C1
S214013A10ECE700BF00100058002000584FF0B041FE
S214013A204B6810B50BB11DF05EF901220B4BC47843
S214013A305A608378934043EA8403447823430479A5
S214013A4043EA0413447943EAC4038B60044B5A6087
S214013A500378C3F10203CB6010BD00BF00200058FD
S214013A60001000584FF48032064B5A6603F5E623E1
S214013A705B69C3F38512827003F03F021B0B427031
S214013A800370704700900050014B986CD96C7047DA
S214013A900080E00F024B1868C0F30740704700BF74
S214013AA00080E00F0120034B9B680A3303F01F03DD
S214013AB0984070470080E00F38B50446054D27F062
S214013AC09FF90FCC0FC594E8030085E8030000209A
S214013AD038BD00BFE818002047F6FF739A42F0B5DC
S214013AE06FD002296FD8394B5B5C012B6BD8384DF0
S214013AF0DF0005EBC30415F83330A178012B13D191
S214013B000025E078401AA84202D80844C0B2F0BDA9
S214013B10431B6668A0EB530336F913609642D4BF85
S214013B201D4603F1FF30EEE760680028EFD0B0F9DC
S214013B300040944204DBB0F902409442B8BF1446F8
S214013B4083883D44FF2B19BFC8224FF0280CB0F9DB
S214013B500620B0F908C0A2EB04030CBF012600261C
S214013B6093FBFCF333446E781BB29E4201DD002BBF
S214013B7001DA731E1BB24FF47A7C01339BB2071D28
S214013B805D1E2DB24FEAC50E00EBC505EA88AD688D
S214013B909E4214FB025222EAE27202F15C02B2FB7E
S214013BA0FCF204DD37F8335001339542E8D200EBDE
S214013BB00E039888904228BF1046884238BF0846B0
S214013BC0A4E7FF20A3E70020A1E700BFD9C20300B6
S214013BD0E81800200229F0B555D82C4B585C01286E
S214013BE051D82B4C04EBC00114F830004B68012867
S214013BF00FD1C8788C78904294BFC4EB0001C4EB17
S214013C000201001BCAB28242C8BF002233F9120069
S214013C10F0BD002B37D08878904202D3B3F902006A
S214013C20F6E7CC78B3F900009442F1D94C7899883C
S214013C30013CA1F1FF06714203F10405E4B27141B2
S214013C4003F10C07CEB2B44216D805EBC1014FF40E
S214013C507A756A43B1F902404968521A04EBD47185
S214013C6002EB610292FBF4F29042D1DBB3F902005F
S214013C709042CDDC10B2CBE737F831C04E1C9445EC
S214013C80E3D33146DEE70348C2E700BFD9C20300EB
S214013C90E81800200080FFFF08B50448FFF70CFF76
S214013CA0BDE80840012027F0AFB800BF24CD0300CF
S214013CB0004870474C0C00207FB50222084B09498A
S214013CC0CDE901234FF00073CDE90313052301A9C4
S214013CD04FF0FF30059327F0CCF807B05DF804FBF2
S214013CE0006A1800000204001B0603F0706300F06F
S214013CF00F000902034301F47061120402F47022FA
S214013D000B431343014A1360704700BF0020025C57
S214013D1060B5054619B10139B1F5806F0FD2094E6C
S214013D20F06810F48030FBD143EA012312072B43DD
S214013D3002F08052134343F00043736060BD0120DC
S214013D40FCE700BF0020025C0122054B9A60DA689E
S214013D50D203FCD4D86820F00F000004000C704792
S214013D600020025C014B1868704700BF0040025CEF
S214013D70014B5868704700BF0010025C014B186B7E
S214013D80704700BF0010025C014B1868704700BF07
S214013D900010025C014B9860704700BF0010025C87
S214013DA0014B1864704700BF0010025C014B586459
S214013DB0704700BF0010025C014B5863704700BF9C
S214013DC00010025C0022014B1A6070470010025C72
S214013DD0024A136843F00103136070470010025C47
S214013DE0024A136823F00103136070470010025C57
S214013DF043F20402014B1A60704700BF0010025CD8
S214013E00024A136843F03003136070470010025CE7
S214013E10044B1A6842F480721A601A6822F480729F
S214013E201A6070470010025C024A136843F480630C
S214013E30136070470010025C034A136823F4702372
S214013E4043EA0043136070470010025C044B1A6992
S214013E5002605A6942609A698260DB69C360704792
S214013E600010025C0268044B1A6142685A6182685B
S214013E709A61C268DA6170470010025C024B1A6BE5
S214013E80D207FCD4186270470010025C0322024B72
S214013E90186019615A6370470000025C82B01FB552
S214013EA007930A9B04AC8B4228BF0B4604E9070024
S214013EB01048D100079948BF03330160099948BFEC
S214013EC023F0030323F0704301F0E041194341F06E
S214013ED000518160002102F0E042019C1A4342F049
S214013EE00052C16004618261416304B0BDE81040C4
S214013EF002B070470000025C3F22034B1A63102297
S214013F00DA6103229A6370470000025C024AD36BAF
S214013F109B07FCD4704700BF0000025C044B9B6A01
S214013F2013F0240F14BF012000208000704700BF4B
S214013F300000025C08B5FFF7F1FF064BDB6B23F4CC
S214013F407F4323F0EF0303431EBF0122024BC3F856
S214013F50FC2F08BD0000025C00F0FF3F4368182BF1
S214013F600AD0202B1DD0102B2BD1174BD3F804349D
S214013F70DB010AD401207047134BD3F804349A01AD
S214013F80F8D50B6843F008030B6003680F4A9342A9
S214013F9010D10B6843F040030B6000234360002000
S214013FA07047094BD3F804345B01E3D50B6843F043
S214013FB00403E9E7064A9342F1D10B6843F0800314
S214013FC0EAE70720704700BF0000025C9827002040
S214013FD0972700200B4607B50749D1F80414C907EF
S214013FE008D5002100920246084600F05BF803B0AF
S214013FF05DF804FB0120FAE70000025C1346064A5E
S214014000D2F80424D20504D50A46014600201DF044
S21401401075B80120704700BF0000025C13B5084C5C
S214014020D4F80444E40508D5009313460A4601462D
S214014030002000F061F802B010BD0120FBE700BFD0
S2140140400000025C13B5084CD4F80444E40508D516
S214014050009313460A460146002000F071F802B0AC
S21401406010BD0120FBE700BF0000025C70B50446EE
S2140140700D4616468CB00A4A09AB07CA83E8070004
S2140140801A462146CDE90563CDE90333CDE901336F
S21401409000954FF480301CF05DFF0CB070BD00BF82
S2140140A0DCC20300F0B51C465B6815468DB01A07E6
S2140140B0129E1AD1CBB17268934216D10C4B0D4A9F
S2140140C053F8217009AB07CA83E807001A46294648
S2140140D0CDE90533CDE90333CDE90163009447F417
S2140140E080701CF037FF0DB0F0BD0720FBE700BF66
S2140140F0E8C20300DCC20300F0B516465A688DB06C
S214014100102A0D46129F15D17A68102A12D10A4A32
S21401411009AC07CA84E8070022462946CDE90547C7
S214014120CDE90344CDE90144044800961CF012FF92
S2140141300DB0F0BD0720FBE7DCC203003000010034
S214014140F0B516465A688DB0102A0D46129F15D145
S2140141507A68102A12D10A4A09AC07CA84E807000D
S21401416022462946CDE90574CDE90344CDE901444B
S214014170044800961CF0EEFE0DB0F0BD0720FBE7EC
S214014180DCC203001000010082B070B586B0149D39
S21401419003AE202D86E807000B9359D805EB85035F
S2140141A08B4203D006236B438B4253D10C9BAB420D
S2140141B050D10F9BB3EB450F4CD1129A934249D184
S2140141C0012229462220159BFFF7A2FD044630BB9B
S2140141D0034606220E210C20FFF786FD0123CDE9BA
S2140141E000332B4696E807001CF047FE0E230BAA69
S2140141F0009307CA2B461CF08BFD0C23164C00932C
S2140142000EAA2B4607CA1CF0B3FD636823F07F0392
S21401421043F026036360FFF797FD30B1062420467E
S21401422006B0BDE8704002B07047636823F07F03B4
S21401423043F022036360FFF787FD04460028EDD1B3
S214014240062311AA009307CA2B461CF0C4FDE6E715
S2140142500124E4E70724E2E70020025C70B598B089
S214014260002843D02C4C08AD0FCC0FC50FCC0FC582
S2140142700FCC0FC594E80F0085E80F006D4604AE1D
S21401428004F1100320340FCB85E80F0094E80F00EB
S21401429086E80F00FFF7BCFD0420FFF7CDFDFFF712
S2140142A0A7FD3046FFF7DEFD002408AE56F8040BE6
S2140142B00134FFF7E3FD102CF8D1FFF759FD032871
S2140142C0FBD90024FFF77EFD2646FFF74BFD55F888
S2140142D0043B01365840042E44EA0004F5D12CB1C3
S2140142E0012206200D4B1A7018B070BDFFF790FD25
S2140142F00820FFF74FFD0020FFF752FD0720FFF7CC
S21401430055FD4FF40070FFF757FD0820FFF794FDA9
S214014310FFF75EFD0020E7E7C4C303009A270020ED
S21401432008B5FFF775FD0122014B1A7008BD00BFE5
S214014330992700201FB51DF060F8044630B1012210
S21401434006240D4B1A70204604B010BDFFF70AFD77
S2140143500090FFF707FD0190FFF704FD0290FFF7BD
S21401436001FD03906846FFF77DFDFFF7D9FFFFF7D4
S21401437047FDFFF759FDE6E79A27002006289ABF72
S214014380014B185C0020704724C4030030B5154B60
S21401439087B00293144B0390049346F611030D461F
S2140143A0059300F077F91428044616D168461DF0E7
S2140143B0CEF84FF0A843032202A95A6319601D6183
S2140143C09A63DA6B9207FCD1142C02D168461DF071
S2140143D0CCF800F093F9044601E00028E9D0204625
S2140143E007B030BD00190020040000202DE9F04F71
S2140143F0B1B005468C469E46E8466F4EDDF8EC9019
S214014400409C06F1100A474630687168083603C7B3
S2140144105645B846F7D13E9B03EB0208C8F1000AA1
S2140144200AF00F0AB9F1000F00F09D80C9F10007EC
S21401443007F00F070121DDF8FCB044F00050C4F18D
S2140144401006CDF810B005910690300200F4F85031
S21401445040F021000790B9F1000F40F08680CDF8BA
S21401446020D047F00050002D00F0848009912121D2
S2140144700A9041EA07210B9142F00050CDF830C076
S2140144803D9B08A94FEA0A2C0D910E904CF0410075
S2140144900F901093002A75D13E9B119143F0005363
S2140144A012933C9B1390149310AB1593434B444AC1
S2140144B0169340F611031793424B0021002D08BFB7
S2140144C01346189314AB19933F4B10221A931123DA
S2140144D01B931CAB18461EF044FA01221D920022C3
S2140144E046F0804603461E96239205B9EB46102CED
S2140144F0CDF880B024AE4BD10123224600213046B0
S214014500219322941EF02DFA20AB002125938F4291
S21401451018BF334647F0804226923A9A2CA8289232
S2140145202993B2FA82F35B0949EA837310222B912D
S2140145302A931EF016FAB9F1000F00D028AED04427
S21401454048F080432CA918A82D962E93FFF71EFF3E
S21401455030B92DB90346A34225D1002818BF2C2017
S21401456031B0BDE8F08F102764E7CDF820E049F0C0
S214014570005078E7002C3FF479AF04A90991012196
S2140145800A9076E73E9B0CAA11924120129388E787
S214014590102200213046219322941EF0E2F9002CCD
S2140145A0B2D10123B1E703F1C0026A4412F8C02C6C
S2140145B001331043CFE700BF2BC4030010000020D7
S2140145C040C4030044C4030004000020F0B5C02921
S2140145D09FB0DDE9244557D0B1F5807F04D080290E
S2140145E048D029201FB0F0BD01265CB140F2344707
S2140145F002941024039604942124019705940695A9
S21401460002AC0AE040F21447029410240396049484
S2140146102124059401240197069507940125102469
S214014620089409950A9221220B950C940D92174A2B
S2140146300AAD0E92164A0F95109242F61102119289
S214014640129313951494159201AA1692D3B112AB34
S2140146501793042318931123199316AB1A901B93DF
S21401466040F61103C9081C911AA806A91D93FFF765
S2140146708DFEB7E7012614B94FF48267C4E74FF4FD
S2140146808667B5E70EABE3E70F20ABE73CC4030054
S2140146901000001038B5164B5A6E42F004025A66E6
S2140146A0D3F8802242F00102C3F88022114B5B68E6
S2140146B0C3F3080343B14FF0A842D36B13F0430F83
S2140146C0FBD11424204638BD4FF0A843DC6B14F010
S2140146D04304FBD1084D2B681BB90421284602F080
S2140146E0E3FA2B68013343F000432B60EAE700BF8F
S2140146F00080005000ED00E000190020014B002072
S2140147005B68704700ED00E04FF40052034B002059
S2140147109A660322C3F86022704700BF00900050DB
S2140147204FF40052034B00209A660322C3F860221E
S214014730704700BF00A00050012300F01F02A0F543
S21401474006200949A0F550604009934051F8202001
S2140147501A4341F82020054951F8202022EA030295
S21401476041F82020704700BF1819002004190020C6
S2140147700121A0F506230E4AA3F550635B0900F05C
S2140147801F00814052F82300014342F823100949D3
S214014790D1E90030034488680344C86809690344C2
S2140147A05B1802BFC2E90033C2E9023313617047E6
S2140147B004190020181900202DE9F04FA9B0039222
S2140147C01D4604460822339ECDE90401414021FAE4
S2140147D002F34B40980702F1080218BF9B00202AFB
S2140147E01C44F4D18123B4FBF3F303EBC313E41AA3
S2140147F0734B04F506241B7804F55064002B3ED158
S214014800FEF7A0F9074620B16FF0910029B0BDE888
S214014810F08F0146402208A81EF0A3F84022394630
S21401482018A81EF09EF8DFF8B481DFF8B491C346ED
S2140148300BF10F0ACDF800A0102208A95B46D9F8A3
S214014840000026F06BF80022014608F1100808AFB8
S214014850914246D1CDF800A05B461022D9F800005F
S21401486018A926F064F84FF0000A834618AFD3451E
S21401487041D1544B9845DAD10122514B1A704FF071
S214014880810A4FF00008DFF85CB1A4F50627A7F50A
S21401489050635B095BF8232004F01F01CA40D2076E
S2140148A03DD4494A52F82330CB40DB072AD5B8F12C
S2140148B0000F08BFA0468123A7F6FF47B7FBF3F317
S2140148C003EBC313FF1A07F50624BAF1010A04F530
S2140148D05064DAD1039BBBB1B8F1000F14D0444643
S2140148E019E057F8040BCDE90612FFF725FF079AE2
S2140148F006990132ACE757F8040BFFF739FF0AF1C6
S214014900010AB4E7039B13B96FF08B007EE7B8F199
S214014910000F18BF4446349B00201C6076E7329B8C
S21401492013B10023329A13600EB1002333601023B3
S214014930DFF8AC9000932A4600232146D9F8000000
S21401494014F064FA60BB32992A68204BC9B99A42BE
S21401495006D02146D9F8000014F0F0FA0028D3D189
S214014960D5E90223DDE90410834208BF8A42A2D1B9
S214014970039B002BCFD06B68012BCCD16FF084004A
S21401498044E7102032999A420860E2D1002EE7D01F
S21401499033462146D9F8000018AA14F08BFA48B11C
S2140149A00B4B9842D5D00B4B9842D2D00A4B98422B
S2140149B0D6D029E7329A336812689B1A3360CFE75C
S2140149C09B2700200071080004190020105D175E67
S2140149D0FFDF00F011E000F0FEDF00F0006D0800E0
S2140149E0F80A0020181900202DE9F04F87B08246FA
S2140149F0894698461646DDF840B02AB1002B4FD0BE
S214014A0040F26C739A424ED8BBF1010F4ED8002487
S214014A1006F110073946012005941CF037FF0546BC
S214014A20002846D021463A461DF09BFF05ABCDE94E
S214014A30014300942B46012250464946FFF7BCFE2F
S214014A40044680B110F18C0F08BF6FF08D043A4612
S214014A50002128461DF085FF28461CF027FF20462A
S214014A6007B0BDE8F08F144BC5E902A92B60C5F865
S214014A7004B02EB13246414605F110001DF026FF66
S214014A80059E0E483B462A463146006814F026F934
S214014A9018B93046FFF750FED9E76FF09104D6E714
S214014AA06FF08604DBE76FF09104D8E76FF08504BA
S214014AB0D5E76FF08C04D2E7105D175EF80A002088
S214014AC02DE9F0438DB08146DDE914780E46154692
S214014AD01C469BB1B8F1000F05D16FF08606304633
S214014AE00DB0BDE8F083002FF7D0B7F1005FF4D327
S214014AF0C3F1005303F500439F42EED81022002174
S214014B0008A81DF02EFF002207AB029305AB019308
S214014B1006AB31460093484608ABCDE90522FFF7C0
S214014B204BFE06460028DAD1059BA4B1AB4215D848
S214014B3053EA0504D1D1069B0B48C8F800400094FF
S214014B403A46079900682B4414F060F9002818BF0C
S214014B506FF09106C3E7AB42EDD2BEE75B1B9C420A
S214014B6028BF1C46E7E700BFF80A002030B58DB025
S214014B700C4605461022002108A81DF0F2FE002270
S214014B8007AB029305AB019306AB2146009328467B
S214014B9008ABCDE90522FFF70FFE0446D8B9099BFD
S214014BA0012B1BD0079D104B2946186814F0C6F937
S214014BB0B8B90122A5F506230C49A3F550635B0994
S214014BC005F01F00824051F823004240284641F874
S214014BD02320FFF7CDFD20460DB030BD6FF08404D5
S214014BE0F9E76FF09104F6E7F80A0020181900209B
S214014BF02DE9F04F89B007460E46FFF7C5F8C00706
S214014C0009D4042401201CF005FC80B3013CF9D131
S214014C106FF0920028E0102200210DEB02001DF03B
S214014C20A0FE04A8FFF712F9049B002BE9D0059B10
S214014C30002BE6D0069B002BE3D0079B002BE0D091
S214014C400025DFF8808008F10409B54219D34FF436
S214014C508A74FFF793F800F00E03062B2DD1C305D7
S214014C6001D5FFF7BDF8002009B0BDE8F08FFFF7CA
S214014C7085F810F00E03FAD0022BF8D04105DFD5E7
S214014C80C4E7FFF775F8A6EB050A8400544528BF6C
S214014C90544699E8030000238DE80300CDE9054357
S214014CA007EB050BCDF810B0029404AAD8F8003033
S214014CB007CA1CF0A8FA2544C7E724FA03F3DA0763
S214014CC0A6D5C6E750C403001FB504A800E90E0028
S214014CD011460198FFF78CFF70B1FFF721FBBFF378
S214014CE04F8F0749074BCA6802F4E0621343CB6053
S214014CF0BFF34F8F00BFFDE705B05DF804FB00BFB3
S214014D0000ED00E00400FA052DE9F0438BB01746EC
S214014D10DDE91545DDE913269C46DDE917388946A8
S214014D2021B96FF086000BB0BDE8F083002FF8D0F4
S214014D300EB9002CF5D1129909B9002AF1D10DB995
S214014D40002BEED1B8F1000FEBD0244A944541D1A7
S214014D500288B2F5105F3DD14288B7EBD20FE0D39F
S214014D6022F04001802902D0B2F5807FD9D16CB300
S214014D70AE421CD23219954219D29C42D1D8314644
S214014D80224628461DF0D3FD2E4614F00F03C8D147
S214014D90CDE90197CDE90336CDE90543CDE90754C1
S214014DA00993FFF7B1FC38B16FF09200BBE79C4264
S214014DB0EBD96FF08900B6E707AA04A901A8FFF7A7
S214014DC009F90546FFF7ACFC0543EDD10020C8F80C
S214014DD00040A8E76FF08500A5E700BF0044400447
S214014DE02DE9F04FA9B0834617469A460E46DDF8E0
S214014DF0C890DDF8D88029B96FF08603184629B027
S214014E00BDE8F08F002AF7D0B9F1000FF4D0349B3B
S214014E10002BF1D0B8F1000FEED00024424B0CADC0
S214014E2093E8070085E807003C22214619A8189454
S214014E301DF097FD3388728803F4E040B0F5804F8B
S214014E40DAD03A4E3A480BEA060646F01066864233
S214014E5063D1B2F5807F60D147F2121293425CD1E2
S214014E600620344ABAF11F0FD3680E940B931369C8
S214014E70126800FB03F3CDE90C23BDD9339B402B0D
S214014E80BAD9359B1F2B4BD909F101022026129264
S214014E90402299F800300F97042B18AFCDE9132460
S214014EA0CDE91572109611941794A5D1FFF72CFC35
S214014EB003460028A2D10B9B15AACDE9086305ABD2
S214014EC007CA83E8070002AB12AA07CA83E80700ED
S214014ED0DDE910018DE803000F9B95E80700FFF759
S214014EE053F90546FFF71CFC55EA000384D13D46FD
S214014EF0349A20AE2C4603CCB4421060516025464D
S214014F0002F10802F6D100221146B9540132402AB4
S214014F10FBD12022C8F8002070E76FF085036DE70B
S214014F206FF089036AE700BFDCC203000000FFF6EA
S214014F3000000209F0C20300F0B50E461D468BB014
S214014F40002853D0002951D0002A4FD0002B4DD035
S214014F50048804F44F43B3F5824F03D06FF0850005
S214014F600BB0F0BDE3B224F0FF04B4F5E24FB0F8A5
S214014F7002C0F3D1122B01D0172BEFD10CF1070190
S214014F80B2EBD10F4FEAD10733D31D4A04ACBCF5BF
S214014F90807F07CA84E80700E0D1122B07D1194B9E
S214014FA01A691B681344CDE90432002306930023D3
S214014FB0CDE907670993FFF7A7FB0028D0D1124A6E
S214014FC002AB92E8030083E803000AAB13E903008F
S214014FD08DE80300079B94E807001CF099F8044647
S214014FE0FFF79EFB204307D12F60B9E76FF08600DD
S214014FF0B6E76FF08900B3E76FF09200B0E700BF45
S214015000DCC20300F0C2030048C403002DE9F043EC
S2140150108FB01D46DDE916C600285CD000295AD09F
S214015020002A58D0002B56D0BCF1000F53D0002ECA
S21401503051D0038803F44F44B4F5824F51D1DCB20A
S21401504023F0FF03B3F5824F40884AD0122C01D0DB
S214015050172C46D1C31DB2EBD30F4FEAD3083AD370
S2140150604FEA4802571C674538D8B0F5807F38D1DB
S214015070122C18BF4FF000094FF0000308BF1C4C5C
S214015080CDE9081805F1010114BF4C46D4F80C907F
S214015090CDE90B120A930D93FFF736FBC0B9CDE9A4
S2140150A0058902AB08AA07CA83E807000EAB13E915
S2140150B003008DE803000B9B94E807001CF047F8FB
S2140150C00446FFF72DFB20430ED104232B703760D7
S2140150D00FB0BDE8F0836FF08600F9E76FF0890046
S2140150E0F6E76FF08500F3E76FF09200F0E700BF98
S2140150F0F0C203002DE9F04389B00E4615461F465F
S214015100DDF8488020B96FF0860009B0BDE8F0836D
S2140151100029F8D0002AF6D0B8F1000FF3D00388A2
S21401512003F44F42B2F5824F02D06FF08500ECE7F0
S214015130DAB2122A01D0172AF7D123F0FF03B3F50A
S214015140E24F41D14488C8F8004044B9EB00B3F5BA
S214015150807FC8F80030E8D1122A0DD108E0E31D9F
S214015160B5EBD30FCFD1B4F5807FDED1122A29D18A
S214015170354B1C681B691C440023194670192C44C6
S21401518014F801CD10F8012D1143B2EB0C020CBF3F
S2140151904FF0FF3C4FF0000C86420CEA030343EA53
S2140151A00203EDD10029AED0002BACDA109B9D4254
S2140151B046D82A46314638461DF088FB119B00200A
S2140151C01D60A2E70024D7E73378042B9BD16B1E22
S2140151D0DB005B08B3F5807FC8F80030A5D1122A42
S2140151E006F1010318BF4FF000094FF04002059386
S2140151F04FF000030ABF144C4C46D4F80C90CDE98E
S2140152000623FFF781FA00287FF47FAFCDF80C90D4
S214015210D8F800300733DB08029308AB13E9030024
S2140152208DE80300059B94E807001CF03DF8044652
S214015230FFF776FA00287FF468AF002CB6D062E755
S2140152406FF0890061E700BFF0C203000388B3F581
S214015250105F0ED14388DB08103B102B0CD8084A90
S21401526022FA03F313F0010F14BF00206FF086003B
S21401527070476FF0850070476FF08600704700BF7B
S214015280010101002DE9F04F8FB01546DDE918A99F
S2140152901E46DDF868801C9F09B300B3B8F1000F05
S2140152A01DD0E7B1BAF1000F02D1B9F1000F16D146
S2140152B0274B26F47E129A42B0F802B044D1FFF78B
S2140152C0C5FF0446A8BBB5EBDB0F4FEADB0306D3ED
S2140152D016F47C1FC6F3054504D0102D03D96FF0D4
S2140152E0860426E010251B9A95422AD8CDE901139B
S2140152F000231022CDE905930DF12809CDE9033AE3
S214015300CDE90823CDF81C90FFF7FEF9044680B9D5
S21401531007AA04A901A8FEF771FE0646FFF700FAE0
S214015320044656B958B92A46494640461DF0CEFAB3
S2140153303D6020460FB0BDE8F08F6FF09204002567
S214015340F6E76FF08904F4E76FF08504F1E700BF34
S2140153500002C0032DE9F041069F0C46164605469D
S21401536010B309B302B9FBB96288B3EBD20F4FEAA7
S214015370D20819D34C22002128461DF0F2FA0D4B13
S21401538027F47E129A4212D12046FFF75FFF0446A9
S21401539038B942463146281D1DF098FAC5F82480D2
S2140153A02F602046BDE8F0816FF08604F9E76FF0C4
S2140153B08504F6E70002C0032DE9F0410E461446C7
S2140153C00546002840D000293ED092B10368214806
S2140153D023F47E1383423AD1AF6BF7B1C7F11008BD
S2140153E007F128004245284406D227441DF06EFAEC
S2140153F0AF630020BDE8F08142461DF067FA102237
S214015400103C3C19AA63F4D0284605F128011CF08B
S214015410F4F80028EED14644A863102C0CD9671E78
S21401542027F00F073A46314628461CF0E6F80028D2
S214015430E0D1E41BDDD03E442246314605F128008A
S2140154401DF044FAAC63D4E76FF08600D2E76FF044
S2140154508800CFE70002C0032DE9F04388461F46C7
S21401546005468BB070B169B163B10368234923F473
S2140154707E1088423ED113F47C1FC3F3054604D048
S214015480102E03D96FF086042AE0102696422BD8F8
S214015490FFF73AF9044618BBAB6B05F12802CDE9D4
S2140154A001236B6A2A1DCDE904231023CDE90830B8
S2140154B007AB1A460390069005F13C0901A904A81A
S2140154C0CDF81C90FEF7BEFD0546FFF729F9044608
S2140154D06DB928B93246494640461DF0F7F93E6097
S2140154E020460BB0BDE8F0836FF08904F8E76FF053
S2140154F09204F5E76FF08504F2E700BF0002C003EF
S21401550007B56B46054A1068516803C36846FEF73F
S214015510A5F9002003B05DF804FB00BF5CC40300DE
S21401552013B50024064A6846536F43F001035367D8
S21401553000948DF80440FEF7C9F8204602B010BD6D
S2140155400040005030B58BB06C46174D0FCD0FC4E0
S2140155500FCD0FC495E8030084E80300134BD3F87E
S2140155604C2112031CD5A3F5FE431C884FF6FF738E
S2140155709C4208BF8C248DF81940FDF7BDFE2044DF
S21401558080F308008DF818000948FDF7C1FA68464F
S214015590FDF7D2FD3220FDF72BFF00200BB030BD0A
S2140155A0D3F85041E4B2E6E764C403000080E00F9C
S2140155B000F0490230B5094D87B001AC0FCD0FC4DC
S2140155C02B6801A8236019238DF80530FDF7CCFE62
S2140155D03220FDF707FF002007B030BD8CC4030062
S2140155E06FF00403502110B50A480B4C13F0800FDE
S2140155F003F1010207D12344402A83F8001313461E
S214015600F4D1002010BD03F00F03043B03441976C8
S2140156101346EBE700ED00E000E100E0BFF35F8F2B
S214015620074B5A6A22F480325A62D3F8942022F049
S2140156300102C3F89420BFF34F8FBFF36F8F7047FB
S21401564000ED00E070B52948294CFFF7E7FF8442DA
S214015650284D294919D1D5F8C03023F0FF0343F06E
S214015660A003C5F8C0304FF080430A68214D234E91
S214015670C5F8982043F0010301328442C5F89C60C6
S214015680C5F8A0300A601ED00DE0D5F8C02020F085
S2140156901F03203B22F0FF0242F0A002B3F1005F9D
S2140156A0C5F8C020E1D2164B0A68124823F01F0342
S2140156B043F00303C0F89820C0F89C30114B013228
S2140156C0C0F8A0300A60BFF35F8F0522094BC3F80C
S2140156D094205A6A42F480325A62BFF34F8FBFF366
S2140156E06F8FBFF34F8FBFF36F8F70BDE40C002039
S2140156F0BC0E002000ED00E02C1900200300002065
S214015700DB0E0020E1FFFF3FF8B51446FFF786FFEA
S2140157101F2C27D90027C2062A4D1CBF20F01F00C8
S21401572020302A68CB06284B18BF21F01F01FCB297
S214015730A2422BD8D3F8C04020F01F0024F47F44A7
S21401574044F4807421F01F01C3F8C04040F0030008
S214015750C3F8982041F003010132C3F89C00C3F856
S214015760A0102A600020BFF35F8F0522164BC3F8F6
S21401577094205A6A42F480325A62BFF34F8FBFF3C5
S2140157806F8FBFF34F8FBFF36F8FF8BDC3F898408D
S214015790D3F89C40D3F8A06024F01F04A04226F062
S2140157A01F0601D1B142DDD0B04201D8A14207D2D5
S2140157B0D3F89840013724F0FF04C3F89840B6E7C1
S2140157C02820D0E72C19002000ED00E0BFF34F8F12
S2140157D00549064BCA6802F4E0621343CB60BFF387
S2140157E04F8F00BFFDE700BF00ED00E00400FA05A3
S2140157F0054B1A782AB95B78002B0CBF03200220D0
S21401580070470120704700BFA62700200329F8B57E
S21401581098BF124B05460E468CBF00245C5C0328DD
S21401582005D8DFE800F002080B0E44F002040C4B2A
S2140158301F684FB9F8BD44F00804F8E744F02004A7
S214015840F5E744F08004F2E77B681A68144203D057
S214015850314628465B6898473F68EAE7A0C40300DC
S2140158605C19002038B5104D2B78ABB10F4C23785E
S2140158701BB100F0B7FB0023237000201BF010FFC4
S2140158800B4C50B100F000FC0023012120782B7056
S214015890FFF7BCFF0123237038BD0122054B1A70A8
S2140158A02278054B1A70F7E7A12700209F270020D2
S2140158B0A8270020A2270020A327002010B51BF050
S2140158C0EAF9064B04461B781BB1BDE810401BF0F5
S2140158D0E6B9FFF7C7FF2046F7E700BF9E2700207F
S2140158E0094A137830B101331370084B1B78012B2A
S2140158F003D87047013B13707047054B1B780BB9F3
S214015900FFF7B0BF704700BFA6270020A8270020DA
S214015910A227002070B51BF0BEF9124E054633785B
S2140159209BB900F0EDFC044620B128461BF0B7F900
S214015930204670BD0C481BF077F800F089FF0B4B32
S2140159401C6000F0A9FD0A4B186000F02BFA1BF052
S214015950A9FE084B002418600123284633701BF06B
S2140159609EF9E5E7A92700205C19002030190020E0
S21401597058190020341900202DE9F843284A013827
S214015980135C39B1274F013339781354012904D8F0
S214015990BDE8F883013B1354FAE7FFF729FF012816
S2140159A0044635D81BF077F9DFF88480054698F869
S2140159B0003013B31C4E33781BB9012232701B4AD8
S2140159C01370DFF8709099F8003023B100F00AFBED
S2140159D0002389F8003028461BF061F901201BF0EE
S2140159E05FFE1BF058F9337805461BB100F04CFBFF
S2140159F000233370002388F8003028461BF04FF947
S214015A003878A042C4D02146FFF700FF3C70BFE7BC
S214015A100329F5D10228F3D11BF048FEF0E700BFB9
S214015A20A6270020A82700209E270020A2270020C6
S214015A30A12700209F27002010B504461BF02BF954
S214015A40002C0CBFFF210121064A13780B44DBB260
S214015A501370B3FA83F3BDE81040034A5B09137071
S214015A601BF01DB9A5270020A427002038B51BF080
S214015A7012F9094B05461B78012B04D81BF00FF9C8
S214015A800024204638BD054B1C6800F047FB044443
S214015A9028461BF004F9F4E7A82700203019002057
S214015AA038B5416004461BF0F6F805462146044821
S214015AB01AF0BDFF2846BDE838401BF0F0B800BF1D
S214015AC05C190020054B1B685843054B00F57420F4
S214015AD000F23F20B0FBF3F0704700BF58190020DA
S214015AE040420F002DE9F04F85B0EFF3108772B6F4
S214015AF0AFF300801CF0A9FE00286FD0804EDFF8BF
S214015B002C82337823B10020FFF7EAFE002333709E
S214015B10FFF76EFE0446002867D0841EE4B2012C0F
S214015B206AD9FFF765FE01280546764CDFF8009234
S214015B3000F28C802078854240F0C680207800F004
S214015B40D7FA99F8003013B16F4B1B782370AFF377
S214015B50008007B962B6EFF3108772B66B4B1A78FE
S214015B6052B100221A70684B20781B78984203D1F4
S214015B7001212170FFF74AFE654800F0FBFB1CF08F
S214015B8073FE05460028BCD1624BDFF8948118707D
S214015B9098F80030ABB189F80000DFF88C9199F8DD
S214015BA000301BB100F01EFA89F8005000201BF0EF
S214015BB077FD002800F09B8000F066FA002388F845
S214015BC00030337823B10020FFF78AFE00233370BC
S214015BD000212078FFF71AFE00232370AFF3008020
S214015BE007B962B605B0BDE8F08F3378002B98D0C0
S214015BF0FFF776FE347094E7002003A900F008FC56
S214015C00044600288DD1D8F80030039A9A4205D868
S214015C100120FFF765FE0123337082E73E4B1D68C6
S214015C2000F07CFA039B05449D42F1D200F08EFA07
S214015C308200039942F0020292B2CDE90042234665
S214015C40364A491B32481BF032FD6AE7344BDFF80F
S214015C50C4A093F800B0BBF1000F25D100F046F9BF
S214015C602078854230D19AF800307BB92C4D2B78BC
S214015C70002B7FF463AF2B4B1B7823B900F0ACF9F4
S214015C800122294B1A7001232B7057E7022DEDD103
S214015C908AF800B015E02378022B25D100238AF874
S214015CA0003025F0F5F91FE0207885420CD19AF8EE
S214015CB00030002B3FF442AF022DD7D100238AF8E3
S214015CC0003025F0E5F9D1E70023DFF848A08AF88F
S214015CD0003099F8003013B92946FFF797FD9AF876
S214015CE000302570002BD6D1012DBFD826E7012024
S214015CF000F0FEF907B962B6EFF3108772B655E702
S214015D00A0270020A8270020A32700209C270020EA
S214015D1038190020A427002030190020BD580100A2
S214015D20A1270020A52700209F2700203419002046
S214015D30A227002010B51AF0AEFF0022044B1C78F3
S214015D401A701AF0ACFF00F0C9FC2043C0B210BDB7
S214015D509D27002073B5114E0446337883420FD039
S214015D604FF400730E4DADF8043058B101A8FDF79D
S214015D7059FC4020FFF7A6FE2B68181A28603470DD
S214015D8002B070BD8DF8050001A8FDF74BFC402060
S214015D90FFF798FE2B681844F0E700BFC50C0020FB
S214015DA09419002073B5002401A88DF80440FDF76E
S214015DB0EFFC2046FFF7CEFF404A4149136F4148AA
S214015DC003F007030B60D2F800113F4D01F0030109
S214015DD001604FF400203D49032B48664FF4003024
S214015DE0486601F598318969C1F3400129705DD093
S214015DF0D2F8203103F00303981E43424341D2F800
S214015E002421334C02F00702022A08BF43F00103A3
S214015E104FF4C8702370FFF755FE00222D4B2E4914
S214015E2018602E4E0B680132D2B20A2A46F8040BCD
S214015E30F9D1034400EBC00003440B602B78284DD6
S214015E4063B323781D4A3BB9D2F8003103F003034C
S214015E50591E4B424B412370D2F8003103F0030325
S214015E60022B25D0032B26D0012B17D1FCF74AFE97
S214015E70024698B11B4B1C4EDC6800231946C4F33E
S214015E800B04013404EB84040138E4FB060101F041
S214015E9091FAFFF717FE2B6803442B601F20FFF7CC
S214015EA011FE2B6803442B6002B070BD0123A6E7E8
S214015EB0FCF742FEDCE71AF0CBFDD9E70080005084
S214015EC0981900209C190020AD2700200090005052
S214015ED0AE270020601900206419002068190020F0
S214015EE09419002000C0015040420F00074A08499B
S214015EF0D2F8203103F003030B60D2F82431054AAF
S214015F0003F0070313601AF0D8BE00BF00800050EC
S214015F10A4190020A019002008B5104B1A78C2B1A8
S214015F2000221A700E4B1A6F22F0070242F001028D
S214015F301A67D3F8202142F00302C3F82021D3F8D0
S214015F40242122F0070242F00302C3F82421FCF7C1
S214015F50C3FD0122034B5A6708BD00BFAC270020D2
S214015F600080005000E000500122154B10B55A6722
S214015F70144B154C1B7813B302201BF03DFCF0B1FB
S214015F8000F076FAD8B1A36DD90302D5E36D9A076E
S214015F9015D40D4B9B6DDB0711D401220B4B1A70E8
S214015FA01BF009FCBDE81040094B0A4A1860136F44
S214015FB023F0070343F003031367FCF78DBD10BD01
S214015FC000D00050AE27002000C00050AB270020B4
S214015FD090190020008000500122014B1A70704772
S214015FE0AC270020F8B51F4B1B78002B39D01E4C70
S214015FF02378B3B91D4B9A6DD10302D5DA6D92079A
S2140160002FD49B6DDB072CD41BF0D5FB184B194AFC
S2140160101860136F23F0070343F003031367FCF7BD
S2140160205BFD1BF0C8FB124B134D1B68134EC01AC9
S2140160302B78134F56F8232046F82300111A3A6896
S2140160401048521A0A213A600932B2FBF1F20133C2
S214016050DBB20260B3FBF1F201FB12332B700023BB
S2140160602370F8BDAE270020AB27002000C00050EB
S2140160709019002000800050AA27002068190020EF
S214016080641900206019002008B51AF019FE124B99
S21401609012491A6F096822F007020A431A67104963
S2140160A0D3F82021096822F003020A43C3F820210D
S2140160B00C49D3F82421096822F007020A43C3F8E1
S2140160C02421094B1B7813B10122084B9A62BDE8C3
S2140160D00840FCF701BD00BF008000509819002061
S2140160E0A4190020A0190020AE27002000E00050CF
S2140160F002280AD003280BD001280CD1064A1369BE
S21401610023F00403136130BF70470020FDF796BAF1
S2140161100020FDF7B9BA704700ED00E0054B18788E
S21401612018B1054B186800EBD000044B1B681844E7
S214016130704700BFAE270020601900209419002088
S2140161400122014B1A707047AE270020014B1878C8
S214016150704700BFAE27002038B51BF03AFB00257C
S214016160084B094C1A682368C31A2AB123B151692E
S214016170994203D3C91A5161206038BD55615B1A33
S2140161809268F2E7B0190020AC190020C38870B5F8
S21401619004460D463BB9FFF769FC8542064602D226
S2140161A01BF072FA35460E4965610B688BB90C60B7
S2140161B0A3600DE0AD1A9A68184665616AB1134688
S2140161C05A69AA42F6D930B18460521BA3605A615B
S2140161D070BD0020F4E70C60F7E79C60A260F7E76B
S2140161E0B019002038B5134D2B685B6993B1124A7C
S2140161F0022014681C441BF0F3FA204600F0BCFA97
S21401620000230E492A680B70D088800709D5012320
S2140162100B7038BD02201BF0E3FA022000F0F6FAFC
S214016220EEE79268002AF4D050690344012BEBD9BB
S214016230EFE700BFB0190020AC190020B0270020FE
S21401624070B516469DF81420C0E903360271049A0B
S214016250BDF818300260002204460D468260C380F5
S214016260EEB91BF0B6FA2844A0619DB12E461AF08D
S21401627012FD0546FFF770FF31462046FFF786FF01
S214016280104B1B68A34201D1FFF7ACFF28461AF05A
S21401629006FD02E0E36865617BB9002070BD1BF076
S2140162A098FA3044A061002DE0D1E3686561002BC7
S2140162B0DDD0204621689847D9E7204621689847CF
S2140162C0EBE700BFB019002000220C490B687BB138
S2140162D083420AD183687AB1936083681BB15A6995
S2140162E041690A445A61002070471A469B68EEE7E6
S2140162F00028EFD0022070470B60EEE7B0190020AF
S21401630070B51AF0CFFC144E05463478FCB9134B21
S2140163101C60134B1C60134B1C8000F0EBF9012032
S2140163201BF05EFA1BF077FA0F4B0246186020B995
S21401633028461AF0BDFC232070BD234640F2E73103
S2140163400A4801F037F80A4B1860012333702846D3
S2140163501AF0AEFC0020EFE7B1270020B0190020AC
S214016360AC19002036270020B419002018FCFFFFC6
S214016370A819002070B5044640B31AF08CFC144EE0
S2140163800546FFF7E9FE3068A04209D02046FFF730
S2140163909BFF0446B0B128461AF081FC204670BD2A
S2140163A0FFF792FF04460028F5D133683BB9022077
S2140163B000F014FA28461AF072FC0024EEE7FFF704
S2140163C011FFF7E73368002BF4D1F0E72224E5E765
S2140163D0B019002038B50C460546A8B1A1B1002376
S2140163E00B701AF05FFC0121084B1B6833B91AF0D9
S2140163F05FFC002038BD9D4204D121702278002A1E
S214016400F9D0F4E79B68F1E72220F3E7B019002002
S214016410F8B506460F461AF045FC00250446124B11
S2140164201B6823B920461AF043FC1B2011E05A6969
S2140164301544DA88B2420DD11BF0CBF90B4E336806
S214016440C01AA8420AD3002320463B601AF030FC4B
S2140164500020F8BDFF2EEFD09B68E2E71BF0B9F9EC
S21401646033682B441B1AEFE7B0190020AC19002043
S21401647008B5074B187848B11BF09DF9054B1B680A
S2140164809B69C01A02288CBF0020012008BD00BFEE
S214016490B0270020B0190020014B1868704700BFD4
S2140164A0B4190020F8B50C4B05461B680E4683420E
S2140164B00FD3002440F2E7302146084B4FF47A729E
S2140164C01F680023E5FB070100F074FF30602046DB
S2140164D0F8BD2120FCE700BFA8190020B419002050
S2140164E0F0B51F46002387B00C46164605468DF8C4
S2140164F0133050B30DF11301FFF76CFF9DF8133005
S2140165002BBB204605A9FFF7CDFFE0B9114BE88369
S2140165101B6828465C434FF47A73B4FBF3F203FB23
S2140165201244191B89B2994208BF0021BDF83430C4
S214016530A983059A02939DF830301146CDE9007380
S2140165403346FFF77DFE07B0F0BD2220FBE70220B1
S214016550F9E700BFB4190020014B1868704700BF67
S214016560A81900200F4B10B51A689AB14FF47A712A
S214016570531E1342A0FB01010ED1B2FA82F2C2F100
S2140165801F04531CD243E04001FA03F3184321FAD7
S21401659002F20243104610BD002300F00BFF024634
S2140165A0F8E700BFB4190020C2072DE9F0470446FA
S2140165B00BD5474A138801339BB21380FFF7CCFDF6
S2140165C0444B1B680BB1FFF70DFEA3077ED51AF0EF
S2140165D069FB4FF0000905464E46FFF7BDFDC8466C
S2140165E03C4F3C680CB163698BB100223A4B012EDB
S2140165F01A7003D119F0020F18BF1E70002C61D05B
S214016600FFF7F0FD2846BDE8F0471AF051BB2346D8
S2140166105A693AB91A792179914288BF1C469B6812
S214016620002BF5D128461AF043FB2569DDB11BF096
S214016630D0F8A269A0EB02094FEAE9734D4578EB61
S214016640030311DA23691344A361E368B4F80690DF
S214016650013613B12046216898471AF023FB0546F8
S214016660FFF77AFDBDE7A9461AF01CFB82462046D5
S214016670FFF72AFE50461AF01BFB2369002BE4D0D5
S214016680A38BB5EB090533B1E28B13449BB2B3F58B
S2140166907A7F0FD2E3831AF005FB8146294620460E
S2140166A0FFF774FDA369226948461344A3611AF0F3
S2140166B0FFFACAE7A3F57A73E383A369013D013BB9
S2140166C0A361E8E7022000F089F89BE7BDE8F087C0
S2140166D036270020B0190020AF27002010B51AF089
S2140166E0E1FA034B1C781AF0E3FA204610BD00BF0E
S2140166F0AF2700201FB500241C4B012118689A887B
S2140167000290D3F806009B7A00903E20ADF80C204C
S2140167108DF80430FCF70CFC02A88DF808408DF8C3
S2140167200C40FDF77BF9694601208DF80040FDF726
S21401673031F94FF0B04240F2FF31936923F47F7391
S21401674023F0030393610A4B5961936A13F008031C
S214016750FBD113620120FDF737F94FF48052054B48
S214016760C3F880211A6004B010BD00BFA4C40300A2
S2140167700020005800E100E010B504461AF08BFA3C
S2140167804FF0B042936A1907FCD4136A116C526930
S214016790520604D4CA1A032A01D899420ED1E21A23
S2140167A0022A98BFDC1CB4F1FF3F38BF013C4FF012
S2140167B0B0431C649A6942F040029A611AF06FFA7B
S2140167C0054A13783BB14FF0B041CB6B43F002035F
S2140167D0CB630023137010BDC60C0020820700F0A7
S2140167E001030AD50121084A43F0400311704FF016
S2140167F0B041CA6B22F00302CA634FF0B0418A6906
S21401680022EA03038B617047C60C0020830742BF50
S2140168104022014B5A6170470010005810B51AF01B
S21401682041FA4FF0B04304465B695A06074A03F043
S214016830010003F0510348BF40F002005361FFF727
S214016840B3FE2046BDE810401AF032BA00200058C8
S2140168500A4B10B5D3F8403203F00303013B012B7A
S2140168600BD81AF018FA044601210220FFF784F823
S2140168702046BDE810401AF012BA10BD0080005044
S214016880024A0349034808F087BD00BFB0C40300AD
S214016890D8C4030020C5030010B50A46044619B142
S2140168A0024B00211B68984710BD00BFFC0A002060
S2140168B00E4B0340B3F1607F06D1B1F5885F14BF7C
S2140168C06FF0860000207047B3F1707F0BD101F4A2
S2140168D0E043B3F5005F06D111F4E06F0CBF6FF033
S2140168E08600002070476FF0860070470000C07F6A
S2140168F08A42F8B506460C4600F0DB806F4922F462
S214016900FF7323F001038B420ED06D4B22F0FF0183
S214016910994209D06B4822F47F7323F00303834224
S21401692002D0694B994228D1684B24F0FF01994265
S2140169300FD114F0FF000BD0654B40F00070984269
S21401694040F0B98082EA0400FF288CBF00200120B5
S214016950F8BD5B4B9942ECD0A3F588539942E8D039
S21401696024F4FF7323F00103B3F1062FE1D0564858
S2140169708142DED053498B42DBD004F0FE43B3F1B3
S214016980A06F14D102F0FE43B3F1A06F40F09380E4
S21401699082EA040333F47E1340F08D8014F4004041
S2140169A0D6D0C4F30540C2F305429042CDE7B3F119
S2140169B0407F6AD102F0FE43B3F1407F7BD182EA89
S2140169C0040535F47E1576D131462046FFF770FF73
S2140169D0002870D13F4B12F47C1703EA02031BD048
S2140169E0B3F1607FC2F305473FD13B49D3B243F0D1
S2140169F000738B423DD003F17E43043B0F2B01D83D
S214016A003649CD5C14F47C1FC4F3054333D1BD4233
S214016A1014BF002001209BE7B3F1607F0DD12E4902
S214016A20D3B243F000738B421DD003F17E43043B87
S214016A300F2BDAD82A49CF5CD7E7B3F1707FE1D1C3
S214016A4006F4E043B3F5005F03D10127C6F3022342
S214016A509F4006F4E043B3F5005FD3D10125C6F3AA
S214016A6002218D40CEE71027BFE7B3F1707FC9D171
S214016A70EFE71025C6E712F47C1F01D1AB4218D010
S214016A8022047FF565AFBB425FE7B3F1106F12D109
S214016A9024F01F6020F4702068B902F0FE43B3F1C1
S214016AA0106F7FF455AF0F48104040F01060A042C1
S214016AB0AEE701204CE700204AE700BF00020006CF
S214016AC00013000600040006000900060003000685
S214016AD0FF0000020000C07F030000024EC5030055
S214016AE04EC503000000FFF62DE9F84317460022C5
S214016AF088461C4600F05AFA054688BBD8F800605E
S214016B00B6F8009009F4E043B3F5804FF36808BF88
S214016B1027F0010737EA03031AD10CB3254B24F0FB
S214016B20FF029A421FD114F0FF0304D0224A43F019
S214016B300073934232D0224648463169FFF7D8FEA9
S214016B40074668B9224648467169FFF7D1FE70BB11
S214016B506FF0840500233046C8F800301BF01DFD99
S214016B602846BDE8F883154B9A42DCD0A3F5885336
S214016B709A42D8D024F4FF7323F00103B3F1062F11
S214016B80D1D00F498A42CED00E4A9342CBD004F0E0
S214016B90FE43B3F1407F04D12304CCD56FF08605C4
S214016BA0D8E7B3F1A06FF7D0034B9C42C2E73D464E
S214016BB0D6E700BF00030006FF0000020013000630
S214016BC0000900060004000638B500F0FE43B3F1E4
S214016BD0407F04460D4602D06FF0860038BDFFF7B1
S214016BE067FE0028FAD114F47C1F12D0C4F30543C3
S214016BF0032B137022D9284A2240B2F1607F3DD17F
S214016C00264AE4B244F0007494422BD1102BE5D905
S214016C10E2E7214B2340B3F1607F15D11F49E3B270
S214016C2043F000738B4202D110231370D6E703F1B1
S214016C307E43043B0F2B04D9002313706FF08500AD
S214016C40CCE71749CB5CD3E7B3F1707FF4D101F4FD
S214016C50E043B3F5005FEFD10123C1F302218B407E
S214016C60DBB2C5E704F17E44043C0F2CB4D80D4AD0
S214016C70125D9342B0D8142BB0D9DFE7B2F1707F22
S214016C80AAD105F4E042B2F5005FA5D10122C5F311
S214016C900225AA40EDE700BF0000C07F0300000206
S214016CA04EC503004EC5030037B50B4D0C462B7879
S214016CB07BB100230A460193014601AB281D1AF059
S214016CC0CDFC20B9019BA34218BF6FF0930003B01F
S214016CD030BD6FF08800FAE7B81900202DE9F04FB3
S214016CE09B460023924601F0FE4297B0B2F1806FB8
S214016CF00E46DDE92078DDF88890089305D0184621
S214016D001BF04BFC6FF086043CE00B464FF48072A0
S214016D1008A9FFF7E9FE044618B108981BF03DFCE8
S214016D2030E0DDF820C00DAC6546CDE914000FCD8E
S214016D300FC495E80700BCF8003084E8070003F4A8
S214016D40E042B2F5005F20D113F4E06FC3F30221F5
S214016D501BD0384826F4807282420AD000F50070B3
S214016D60864206D03448864203D0A0F53F40824290
S214016D700BD101258D40102D12D960461BF00DFC5C
S214016D806FF083042646002548E042F2040293424F
S214016D9002D12A4B9E420BD0294B9E4244D10D254F
S214016DA0A84507D260461BF0F8FB6FF08904E9E7B7
S214016DB00C25F5E7294609A8FFF776FF04460028C3
S214016DC0ABD10898D0E9091287B307EB050C0E9CE6
S214016DD0A8EB0503240A93D10DF12408CDE9053962
S214016DE0CDE903BC3346CDE9015ACDF800800DA8A4
S214016DF0FDF78AFF044614F1860F08988ED01BF023
S214016E00CCFB0646002CBDD190B925B12A46414699
S214016E1038461BF05BFDD9F800301D443046C9F8F2
S214016E20005017B0BDE8F08F0025CAE7BC46CEE794
S214016E300446A7E70010C00400FF400400018004D8
S214016E400013C00408B500F05FF8064B5A7812B17B
S214016E500022C3E90122BDE808400C210148FFF7E2
S214016E601BBD00BFB819002070B50C4D2B7873B947
S214016E701AF0F2FB044668B902230126C5E90100AF
S214016E80AE706B7000F038F8044618B92E70002406
S214016E90204670BDFFF7D6FFFAE700BFB8190020FD
S214016EA000F100420332022A38B504460D4609D8DD
S214016EB02C21104B01FB02339A68824211D06FF0ED
S214016EC08B0010E001211BF01AFB78B1094B9A6880
S214016ED0944206D05A6B944206D01A6E9442EED172
S214016EE0583300202B6038BD2C33FAE76FF087004B
S214016EF0F9E700BFC41900200122024B002083F8E5
S214016F0084207047C419002070B5094C0025264618
S214016F10042120461BF004FB013520461AF0A2FE90
S214016F20032D04F12C04F3D1002386F8843070BDC0
S214016F30C4190020F8B51B4C064694F884300F4659
S214016F404BB300252346294693F820001A46B8B1CC
S214016F5025B91A7912B1022808BF1D460131032945
S214016F6003F12C03F0D115B96FF08C0015E0042164
S214016F7028461BF0D5FA68B928461AF073FE2A4649
S214016F800020094B141BA4105C4304F10044033C8D
S214016F9034603A60F8BD6FF0880000233B603360D0
S214016FA0F8E700BFC4190020A38B2EBA2DE9FF41D4
S214016FB000230B60394B804693F884300D46164605
S214016FC0002B68D0FFF76CFF0446A0B92EB92868DD
S214016FD004B0BDE8F0411BF0CDBA012E04D0002468
S214016FE0204604B0BDE8F0810521286804B0BDE85C
S214016FF0F0411BF095BA10F18C0FF1D1294601A88A
S214017000FFF798FF04460028EAD101232F68CDE94F
S2140170100200C7F8088038467B6003AA02A91BF065
S21401702067FB044688B1DDE902011BF05FFB2D68B2
S214017030042128461BF074FA28461AF013FE14F1B0
S2140170408C0F08BF6FF08704CAE7DDE902123846E5
S2140170501AF093FD0446DDE902011BF047FB002C04
S214017060E5D1022138461BF05BFA04460028DED142
S2140170702868C368D90444BF43F48063C360C36807
S2140170809A0444BF43F40063C360002EA0D0012ECF
S214017090A5D10521AAE76FF08804A1E7C41900204D
S2140170A030B40D4D2C681C606C685C6000249C60DC
S2140170B05468DC6014881C8254885C82D4685C61E5
S2140170C014699C61526930BCDA6119620A4601464C
S2140170D003F124001BF0FABB5EC503002DE9F8435B
S2140170E0232904460F4691469846089E04D86FF019
S2140170F098052846BDE8F883082219491BF007FCC5
S21401710005460028F3D1A368002BF0D1216A243F5D
S2140171108F42C8F80010EAD3B1F5005FE7D271B923
S214017120C9F80000E3687360238A3380638A73803A
S2140171306369F360A3693361E3697361D9E7012089
S2140171401AF0A4FBC9F8000030B1D8F8002004F109
S21401715024011BF0BBFBE5E76FF08C05C9E700BF18
S2140171605EC503000368244A23F47F4323F0070324
S214017170934213B521D002F1807293422BD01F4A5D
S214017180934236D11E4C20460AF09CFA00B1FEE727
S214017190022120780AF0E2FA034600B1FEE7A022B7
S2140171A00090114620780AF0A5FA00B1FEE7022108
S2140171B020780AF0E7FAE0B1FEE7124A13780133C5
S2140171C0DBB2032B137014D80D4B022118780AF08A
S2140171D0D9FA70B1FEE70B4C2378032B06D9084B7E
S2140171E0022118780AF0CEFA00B1FEE72378013BB7
S2140171F0237002B010BD00BFA0000600A000010071
S214017200C70C0020B227002010B5234CFBF76AFFFD
S214017210FCF78AF9236F23F0070343F00303236780
S21401722019F024FD1D4B00209B6A9B075EBF0122BF
S2140172301B4B9A62D4F8203123F0030343F0020378
S214017240C4F82031D4F8243123F0070343F00203B5
S214017250C4F82431D4F8403123F0030343F0020389
S214017260C4F84031D4F8603123F0030343F002033D
S214017270C4F86031D4F8403223F0030343F002032C
S214017280C4F84032D4F8003223F0070343F0020377
S214017290C4F8003210BD00BF0080005000C000508E
S2140172A000E0005008B5FCF7F5FB01280ED1144BA1
S2140172B004205A6E4FF480231249520358BF124AD3
S2140172C04B6601F51041086258BF5366FEF788F910
S2140172D019F0A6FBFEF714F9FEF76CF9FEF732F982
S2140172E01AF0C8F9FFF790FFFEF71AF919F08FFBAD
S2140172F0FBF718FBFBF726FCBDE80840FEF70ABBC8
S214017300008000500090005000A000507FB5036838
S214017310244A23F47F4323F0070393423ED10021FE
S21401732008221220204B0AF0DDFA014600B1FEE7E2
S214017330032214201D4B0AF0D5FA014600B1FEE7E0
S214017340052216201A4B0AF0CDFA00B1FEE70DF120
S214017350070102A80AF0F4FA014600B1FEE7BDF8FB
S2140173600C3008225BBAADF810309DF80B301820AF
S2140173708DF81230FF238DF81330FE238DF814306C
S2140173809DF80A308DF81530BDF808305BBAADF8B7
S214017390163004AB0AF0A6FA00B1FEE707B05DF8B6
S2140173A004FB00BFA000010074C803007DC80300F1
S2140173B081C8030053B94AB9002908BF00281CBF79
S2140173C04FF0FF314FF0FF3000F082B9ADF1080CFD
S2140173D06DE904CE00F006F8DDF804E0DDE90223ED
S2140173E004B070472DE9F04F099D0C46002B4DD196
S2140173F08A420F4684469646B2FA82F360D94BB16A
S21401740002FA03FEC3F120029F4000FA03FC20FAB1
S21401741002F217434FEA1E461FFA8EF44FEA1C4249
S214017420B7FBF6F106FB117701FB04F042EA0742CF
S214017430904208D91EEB020201F1FF3702D29042B8
S21401744000F231813946121A1FFA8CFCB2FBF6F0B3
S21401745006FB102200FB04F44CEA024C644508D9F2
S2140174601EEB0C0C00F1FF3202D2644500F21E81C5
S214017470104640EA0140ACEB040C002125B12CFA81
S21401748003F30022C5E90032BDE8F08F8B4205D92F
S2140174900DB1C5E9000100210846F5E7B3FA83F10D
S2140174A000294DD1A342C0F0F380904280F0F080D5
S2140174B0064623460846002DE6D0C5E90063E3E705
S2140174C0002B40F0A3808A1A4FEA1E471FFA8EF659
S2140174D00121B2FBF7F407FB14204FEA1C4242EAF3
S2140174E0004206FB04F090420FD91EEB020204F1A3
S2140174F0FF382CBF4FF001094FF00009904203D925
S214017500B9F1000F00F0CC804446121A1FFA8CFC29
S214017510B2FBF7F007FB102200FB06F64CEA024C22
S214017520664508D91EEB0C0C00F1FF3202D2664507
S21401753000F2B3801046ACEB060C40EA04409DE72F
S214017540C1F120068B4004FA01FE22FA06F720FA62
S21401755006FCF4408A401F434EEA0C0300FA01FE83
S2140175604FEA17484FEA13491FFA87FCB4FBF8F0B5
S21401757008FB104449EA044400FB0CF9A1450ED966
S2140175803C1900F1FF3A2CBF4FF0010B4FF0000BF6
S214017590A14503D9BBF1000F00F08B805046A4EB48
S2140175A009041FFA83F9B4FBF8F308FB134403FB41
S2140175B00CFC49EA0444A44506D93C1903F1FF38FA
S2140175C001D2A4457BD8434643EA0040A4EB0C0411
S2140175D0A0FB02984445CC46434602D306D1CE458D
S2140175E004D20138B9EB020C68EB0703002D6CD00E
S2140175F0BEEB0C0264EB030422FA01F304FA06F66E
S214017600CC4000211E43C5E900643DE702FA03FEB3
S214017610C3F1200104FA03F200FA03FCCC404FEA5E
S2140176201E4720FA01F11FFA8EF6B4FBF7F00A4363
S21401763007FB1044110C41EA044100FB06F48C429E
S2140176400ED91EEB010100F1FF382CBF4FF00109E6
S2140176504FF000098C4202D9B9F1000F2CD04046F8
S214017660091B92B2B1FBF7F407FB141142EA01427F
S21401767004FB06F1914207D91EEB020204F1FF3822
S21401768001D291421ED84446521A44EA004120E7EC
S214017690861A64EB030301200DE7F44402384AE737
S2140176A0023C724431E702397244CCE6F4440238B3
S2140176B0DFE602383C4472E702387144D0E7023B09
S2140176C03C4481E7023C7244DEE72946DCE600BF23
S2140176D0704700BF08B5064B044613B10021AFF34F
S2140176E00080044B1B6803B19847204619F0A3F9A4
S2140176F0000000008C1B002070B50D4D00260D4CBF
S214017700641BA410A64209D10B4D00260B4C24F095
S21401771077FD641BA410A64205D170BD55F8043B45
S21401772001369847EEE755F8043B01369847F2E7ED
S214017730BC0E0020BC0E0020BC0E0020C00E002097
S214017740024B0146186800F02DB800BF000B002060
S214017750024B0146186800F0C1B800BF000B0020BC
S21401776070B50F4E0C460546316811B900F0A6F803
S21401777030602146284600F0A1F8431C03D14FF0A3
S214017780FF34204670BDC41C24F00304A042F8D088
S214017790211A284600F092F80130F2D1EFE700BF37
S2140177A04C1A00202DE9F041CD1C064625F00305B4
S2140177B008350C2D38BF0C25002D01DBA94204D954
S2140177C00C2333600020BDE8F081314F00F062F8F1
S2140177D03B681C4644BB29463046FFF7C1FF431CA5
S2140177E0044650D13C682146002941D1002C44D0A2
S2140177F02368304604EB030800F060F880453CD16E
S214017800216830466D1A2946FFF7AAFF013034D0A9
S21401781023682B4423603B68002B36D05A68A2426B
S21401782029D100225A600EE02268521B1DD40B2A71
S21401783016D96119A342256018BF5960636808BF4D
S214017840396062514B60304600F02AF804F10B00B3
S214017850231D20F00700C21AB5D01B1AA350B2E7A9
S214017860A3426268DED13A60EDE723466468B1E779
S2140178700C464968B8E71346CEE70C23304633601A
S21401788000F00EF89EE70560DDE75B60FFDE00BFF7
S214017890501A002001481BF06CB800BFB327002027
S2140178A001481BF067B800BFB3270020024B0A4609
S2140178B0014618681BF017B8000B002038B50023E6
